:020000040020DA
:100000000C21002041B0200035B020003DB0200080
:100010003DB020003DB020003DB0200000000000B9
:100020000000000000000000000000003DB02000C3
:100030003DB02000000000003DB020001946210026
:10004000C94B2100A14B2100794B2100514B2100CC
:1000500000000000C54721003DB020003DB0200059
:100060003DB0200000000000000000000000000083
:1000700000000000000000003DB020000000000073
:1000800000000000000000003DB020003DB0200056
:100090003DB020003DB020003DB020003DB020002C
:1000A0003DB020003DB020003DB020003DB020001C
:1000B0003DB020003DB020003DB020003DB020000C
:1000C0003DB020003DB020003DB020003DB02000FC
:1000D0003DB0200000000000000000000000000013
:1000E0000000000000000000000000000000000010
:1000F000000000000000000091552100A1552100E2
:1001000000000000000000000000000000000000EF
:1001100000000000000000000000000000000000DF
:1001200000000000000000000000000000000000CF
:1001300000000000000000000000000000000000BF
:1001400000000000000000000000000000000000AF
:10015000000000000000000000000000000000009F
:10016000000000000000000000000000000000008F
:10017000000000000000000000000000000000007F
:10018000000000000000000000000000000000006F
:10019000000000000000000000000000000000005F
:1001A000000000000000000000000000000000004F
:1001B000000000000000000000000000000000003F
:1001C000000000000000000000000000000000002F
:1001D000000000000000000000000000000000001F
:1001E000000000000000000000000000000000000F
:1001F00000000000000000000000000000000000FF
:1002000000000000000000000000000000000000EE
:1002100000000000000000000000000000000000DE
:1002200000000000000000000000000000000000CE
:1002300000000000000000000000000000000000BE
:1002400000000000000000000000000000000000AE
:10025000000000000000000000000000000000009E
:10026000000000000000000000000000000000008E
:100270003DB02000A1502100655021003DB020007C
:100280003DB02000AD4621003DB0200086B00346C1
:10029000ADF806304FF0000303934FF00003ADF8C4
:1002A00012304FF00003ADF8123031E040F6000399
:1002B000C2F20003BDF8122013440593059B9A7AFD
:1002C000DB7A4FEA032343EA02034FEA03434FEA90
:1002D00023439BB2BDF906201BB29A4212D1059A64
:1002E000117B537B4FEA032343EA0101937B4FEADF
:1002F000034343EA0101D37B4FEA036343EA01036B
:1003000003930BE0BDF8123003F11203ADF8123085
:10031000BDF8122040F2F1739A42C7D9039B1846E8
:1003200006B0704710B540F60000C2F2000000F0C1
:10033000A7F910BD10B540F60000C2F2000000F0B1
:10034000B5F910BD40F60003C2F20003184670472D
:1003500086B00346ADF806304FF0000303934FF02C
:100360000003ADF812304FF00003ADF8123021E079
:1003700040F60003C2F20003BDF8122013440593B7
:10038000059B9A7ADB7A4FEA032343EA02034FEA9A
:1003900003434FEA23439BB2BDF906201BB29A42A6
:1003A00002D1059B03930BE0BDF8123003F1120359
:1003B000ADF81230BDF8122040F2F1739A42D7D94D
:1003C000039B184606B0704784B00346ADF806306C
:1003D0004FF000038DF809304FF00003ADF80A30FC
:1003E0004FF00003ADF80A3023E040F60003C2F2FC
:1003F0000003BDF80A2013440393039B9A7ADB7A27
:100400004FEA032343EA02034FEA03434FEA23433D
:100410009BB2BDF906201BB29A4204D1039B1B7C00
:100420008DF809300BE0BDF80A3003F11203ADF886
:100430000A30BDF80A2040F2F1739A42D5D99DF8EE
:100440000930184604B0704784B00346ADF8063052
:100450004FF000038DF809304FF00003ADF80A307B
:100460004FF00003ADF80A3023E040F60003C2F27B
:100470000003BDF80A2013440393039B9A7ADB7AA6
:100480004FEA032343EA02034FEA03434FEA2343BD
:100490009BB2BDF906201BB29A4204D1039B5B7C40
:1004A0008DF809300BE0BDF80A3003F11203ADF806
:1004B0000A30BDF80A2040F2F1739A42D5D99DF86E
:1004C0000930184604B0704700B587B00346ADF850
:1004D00006300DF10E03BDF906201846114600F056
:1004E0000BF8BDF81020BDF812304FEA034343EA81
:1004F0000203184607B000BD10B586B000900B4649
:10050000ADF80630BDF80630ADF808304FF0000306
:10051000ADF80A304FF00003ADF80C304FF0000397
:10052000ADF80E304FF2D473C0F2270304934FF0AE
:100530000003ADF80E308FE0049812F0B7FC0346CC
:100540008DF81430049B03F10103184612F0AEFC41
:1005500003468DF815309DF814309DF8152047F6A8
:10056000BC20C0F22100194615F074F99DF8143032
:100570004FEA03239AB29DF8153013449BB2ADF8AD
:100580000830BDF808301BB2BDF80E2047F6CC206D
:10059000C0F22100194615F05DF9BDF80830BDF92B
:1005A00006201BB29A4249D1049B03F1020318466C
:1005B00012F07CFC03468DF81430049B03F1030316
:1005C000184612F073FC03468DF815309DF8143070
:1005D0009DF8152047F6E820C0F22100194615F0D5
:1005E00039F99DF814304FEA03229DF8153042EA9C
:1005F000030319464FEA01434FEA13434FF0000249
:1006000042EA0303ADF80A304FEA11414FF000030C
:100610001A460B4642EA0303ADF80C30BDF80A2037
:10062000BDF80C304FEA034343EA020347F60030BB
:10063000C0F22100194615F00DF914E04FF0000347
:10064000ADF80830049B03F104030493BDF80E30A9
:1006500003F10403ADF80E30BDF80E2040F2FF7335
:100660009A427FF669AF009B02AA4FF00604184633
:100670001146224616F086FB009806B010BDC04613
:1006800000B587B00190019B03934FF2D473C0F281
:1006900027030493049B05934FF04803DB690398F9
:1006A00005994FF40062984707B000BD00B587B0C8
:1006B0000190019B03934FF2D473C0F2270304937C
:1006C00004984FF4006112F0BFFB4FF00003ADF847
:1006D00016304FF00003ADF8163013E0BDF81620C9
:1006E000049B1A44039B1B781046194612F0D6FB54
:1006F000039B03F101030393BDF8163003F10103DB
:10070000ADF81630BDF8162040F2FF739A42E5D9D5
:1007100007B000BD00B585B003460A468DF8073026
:100720001346ADF80430BDF80430ADF80E309DF836
:100730000730042B07D09DF80730082B03D09DF815
:100740000730052B04D1BDF80430ADF80E3019E0A8
:100750009DF80730092B06D1BDF804304FEA43035A
:10076000ADF80E300EE09DF807300A2B06D1BDF82B
:1007700004304FEA8303ADF80E3003E04FF02C0055
:100780000AF020FCBDF80E3003F103039BB21846BB
:100790004FF0080105F006FF03460293029B002B71
:1007A00003D14FF00003009322E0029B03F1030307
:1007B000BDF80E2018464FF0000116F08FFB02988E
:1007C0009DF804104FF000031A460B4642EA03035B
:1007D00003709DF805104FF000031A460B4642EADD
:1007E00003034370029A9DF807309370029B0093B5
:1007F000009B184605B000BD00B583B0019001987C
:1008000005F048FF03B000BD00B585B003460A46B9
:10081000ADF806301346ADF80430BDF8043003F1EE
:1008200002034FEA43039BB218464FF0070105F05D
:10083000B9FE03460393039B002B03D14FF0000343
:10084000009334E003989DF804104FF000031A461B
:100850000B4642EA030303709DF805104FF00003B6
:100860001A460B4642EA0303437003989DF80610AC
:100870004FF000031A460B4642EA030383709DF8CB
:1008800007104FF000031A460B4642EA0303C370F9
:10089000039B03F10402BDF804304FEA4303104602
:1008A0004FF000011A4616F019FB039B0093009BC2
:1008B000184605B000BDC04600B583B00190019850
:1008C00005F0E8FE03B000BD70B584B001904FF0B4
:1008D0000003039332E0039E039A01994FEA420317
:1008E0000B4418794FEA42030B445B794FEA032328
:1008F00043EA00039BB2184600F02EF803461C465C
:10090000019D04F0FF004FEA46022A444FF0000325
:100910001946034641EA030313714FEA142398B2C0
:100920004FEA46022A444FF000031946034641EAC3
:1009300003035371039B03F101030393019B1A7893
:100940005B784FEA032343EA02039BB21A46039BF8
:100950009A42C0DC04B070BD00B583B00346ADF868
:100960000630BDF80630002B11D0BDF80630184611
:1009700000F014F80346184600F02AF803461A4619
:10098000BDF80630C2EB03039BB2009302E04FF0C8
:1009900000030093009B184603B000BD82B00346DD
:1009A000ADF80630BDF80630002B09D043F23043D5
:1009B000C2F200031A68BDF806301A44009202E041
:1009C0004FF000030093009B184602B07047C046EA
:1009D00082B00190019BA3F105039A78DB784FEA7E
:1009E000032343EA02039BB2184602B07047C04695
:1009F00000B585B003460A468DF807301346ADF8BA
:100A0000043000F01DFA024640F6F673C2F200030D
:100A10001B881BB2104619460CF01EFB03460393BD
:100A2000039B002B11D0039A4FF002039371039A9A
:100A30004FF0010353739DF80730184600F026F875
:100A4000BDF90430184600F02FF805B000BDC046CF
:100A500082B00346ADF8063040F6F673C2F20003EA
:100A6000BDF806201A8002B07047C04640F6F27307
:100A7000C2F200031B7818467047C04640F6F47374
:100A8000C2F200031B881BB21846704782B00346AF
:100A90008DF8073040F6F273C2F200039DF807208C
:100AA0001A7002B07047C04682B00346ADF80630F7
:100AB00040F6F473C2F20003BDF806201A8002B0BB
:100AC0007047C04600B587B003468DF807304FF039
:100AD0000003049336E0049BB3F5C87F04DD049B58
:100AE000C3F54873009301E0049B0093009B0593BA
:100AF0009DF80730184611F049FB4FF000030393AF
:100B000004E000BF039B03F101030393039A059BD9
:100B10009A42F6DB9DF80730184611F023FB4FF0A0
:100B20000003039304E000BF039B03F1010303935D
:100B3000059BC3F5C872039B9A42F4DC049B03F146
:100B400001030493049A40F21F339A42C3DD07B0B5
:100B500000BDC04600B583B043F23440C2F200008D
:100B60004FF0020114F066FE47F61030C0F221008B
:100B700014F070FE4FF00003019310E0019A43F26D
:100B80003443C2F200039B5C47F63030C0F22100D0
:100B9000194614F05FFE019B03F101030193019BD1
:100BA000002BEBDD019A43F23443C2F200039B5C5D
:100BB00047F63830C0F22100194614F04BFE03B05E
:100BC00000BDC04600B583B013F0DAFE13F070FF2D
:100BD00013F06CFC14F024FD10F02CFF13F0AEFFAA
:100BE00014F006F811F004FB4FF00200FFF76AFF63
:100BF00010F07AF913F0A4FE13F030FE41F2CD208C
:100C0000C0F2210013F0CAFD10F04CFB4FF00400BD
:100C1000FFF758FF47F64030C0F2210014F0DCFD2A
:100C200047F64C30C0F2210014F0D6FD47F6603094
:100C3000C0F2210014F00EFE4AF27853C0F22103F4
:100C40001B68184614F0C8FD47F66830C0F2210052
:100C500014F000FE4AF2C853C0F221031B68184684
:100C600014F0BAFD47F67030C0F2210014F0F2FD26
:100C70004AF63803C0F221031B68184614F0ACFD95
:100C80004FF0000010F0F0FE14F092FC11F0FEFFA7
:100C900011F0CEFB11F04CFB034603F101038DF87C
:100CA00006309DF80630184611F0A8FB9DF8063076
:100CB00047F67830C0F22100194614F0CBFD40F21F
:100CC0005040C2F200004FF0000110F00DFA10F099
:100CD00069FEFFF73FFF10F053FF45F2494014F063
:100CE00011F810F077FE4AF21440C0F2210010F023
:100CF00051FA13F02DFE4FF00800FFF7E3FE13F05A
:100D00002FFE10F00FF903468DF807309DF80730DD
:100D1000002BF4D114F09AFCF1E7C04610B513F0A3
:100D2000C5FB11F059FB0346002B3DD011F0ECFA46
:100D300003461A4641F20003C2F200031B78C3EBDC
:100D400002010B464FEA83024FEA4213C2EB030350
:100D50000B444FEAC3031C4611F0EAFA03461A4655
:100D600040F20043C2F200031B78C3EB02024EF6CE
:100D7000602303FB02F31C4411F0E8FA03461A4611
:100D800040F20143C2F200031B78C3EB02024FF6AC
:100D90000013C0F2150303FB02F304EB030240F659
:100DA000F873C2F200031A6010BDC04600B583B0EC
:100DB00013F0BAFB03460193019B4FEA43024FEA4B
:100DC00082031344019340F6FC73C2F200031A68D5
:100DD000019B93420FDA40F6F873C2F200031A68DF
:100DE00040F6FC73C2F200031B681A4440F6F87325
:100DF000C2F200031A6040F6FC73C2F20003019ACB
:100E00001A6040F6F873C2F200031A68019B13449B
:100E1000184603B000BDC04682B00346ADF80630A8
:100E200002B0704782B0019002B0704782B001906A
:100E300041F20403C2F20003019A1A6002B0704743
:100E400041F20403C2F200031B6818467047C04613
:100E500041F23003C2F200034FF0FF321A607047D4
:100E600000B583B00190019A917BD37B4FEA0323B5
:100E700043EA0101137C4FEA034343EA0101537C37
:100E80004FEA036343EA0103002B13D0019A917BDD
:100E9000D37B4FEA032343EA0101137C4FEA034368
:100EA00043EA0101537C4FEA036343EA0103184616
:100EB00000F002F803B000BD10B582B0019041F21D
:100EC0000C03C2F200031888019C00F0FF014FF0F0
:100ED00000031A460B4642EA030363724FEA1023EB
:100EE00099B24FF000031A460B4642EA0303A3727D
:100EF00041F21403C2F200031B681A46019B03F17E
:100F00000D03C3EB02034FEA5303DBB2019AD37222
:100F1000019C019A117953794FEA032343EA0101B5
:100F200093794FEA034343EA0101D3794FEA03631C
:100F300043EA01034FF000011946127A4FF0000313
:100F400062F307030846194605F034FA034603F135
:100F500005031B784FEA430303F10D0323441A46AC
:100F600041F21803C2F200031B68C3EB02034FEA0D
:100F70005303DBB2019A137302B010BD00B583B006
:100F8000019041F20803C2F20003019A1A60019B2A
:100F9000002B2BD0019A917BD37B4FEA032343EAAA
:100FA0000101137C4FEA034343EA0101537C4FEAFA
:100FB000036343EA0103002B14D0019A917BD37B96
:100FC0004FEA032343EA0101137C4FEA034343EA58
:100FD0000101537C4FEA036343EA0103184600F022
:100FE00007F803E04FF02B0009F0ECFF03B000BD61
:100FF00030B585B00190019A117953794FEA0323F6
:1010000043EA010193794FEA034343EA0101D379AB
:101010004FEA036343EA01034FF000011946127AD5
:101020004FF0000362F307030846194605F0C2F9C2
:1010300003460393039B03F1090241F21003C2F23A
:1010400000031A60019B5A7A9B7A4FEA032343EA12
:1010500002039AB241F20C03C2F200031A80019A11
:10106000019BDB7A4FEA430303F10D031A4441F27B
:101070001403C2F200031A60019C019A117953799A
:101080004FEA032343EA010193794FEA034343EA1A
:101090000101D3794FEA036343EA01034FF00001F2
:1010A0001946127A4FF0000362F307030846194607
:1010B00005F080F9034603F105031B781A46019BEE
:1010C0001B7BC3EB02034FEA430303F10D0304EB65
:1010D000030241F21803C2F200031A60019C019A54
:1010E000117953794FEA032343EA010193794FEAD7
:1010F000034343EA0101D3794FEA036343EA01035F
:101100004FF000011946127A4FF0000362F3070313
:101110000846194605F04EF9034603F105031B780E
:101120004FEA430303F10D0304EB030241F21C03F6
:10113000C2F200031A60019C019A117953794FEAB7
:10114000032343EA010193794FEA034343EA010190
:10115000D3794FEA036343EA01034FF000011946D4
:10116000127A4FF0000362F307030846194605F0B0
:1011700021F9034603F105031B781D46019A1179F5
:1011800053794FEA032343EA010193794FEA03437A
:1011900043EA0101D3794FEA036343EA01034FF0C5
:1011A00000011946127A4FF0000362F30703084664
:1011B000194605F0FFF8034603F102031B782B44A0
:1011C0004FEA430303F10D0304EB030241F2200352
:1011D000C2F200031A60039B1A78039B03F1060313
:1011E0001B7803F00203002B14BF002301231344D8
:1011F000DAB241F22C03C2F200031A70039B03F12E
:1012000001031A7841F22D03C2F200031A70019A09
:10121000117853784FEA032343EA010193784FEAA8
:10122000034343EA0101D3784FEA036343EA01032E
:10123000002B00F0A980019A117853784FEA03231C
:1012400043EA010193784FEA034343EA0101D3786B
:101250004FEA036343EA01031C46019A117853786D
:101260004FEA032343EA010193784FEA034343EA39
:101270000101D3784FEA036343EA01031A46117967
:1012800053794FEA032343EA010193794FEA034379
:1012900043EA0101D3794FEA036343EA01034FF0C4
:1012A00000011946127A4FF0000362F30703084663
:1012B000194605F07FF8034603F105031B7818462D
:1012C000019A117853784FEA032343EA0101937896
:1012D0004FEA034343EA0101D3784FEA036343EA49
:1012E00001031B7BC3EB000241F22C03C2F200039B
:1012F0001B7813444FEA430303F10B0304EB03028F
:1013000041F22403C2F200031A60019A1178537863
:101310004FEA032343EA010193784FEA034343EA88
:101320000101D3784FEA036343EA01031846019AA7
:10133000117853784FEA032343EA010193784FEA87
:10134000034343EA0101D3784FEA036343EA01030D
:10135000DB7A1A4641F22D03C2F200031B78C3EB7D
:1013600002034FEA430303F10D0300EB030241F2D2
:101370002803C2F200031A6041F22E03C2F20003F6
:101380004FF000021A802EE041F20803C2F200037F
:101390001A68917CD37C4FEA032343EA0101137D51
:1013A0004FEA034343EA0101537D4FEA036343EAF3
:1013B0000103184600F01AF803461A4641F22E03BC
:1013C000C2F200031A8041F22402C2F2000241F28A
:1013D0002E03C2F20003136041F22803C2F200039D
:1013E0004FF000021A6005B030BDC04682B00190D7
:1013F000019B002B0CD0019B9AB243F23043C2F206
:1014000000031B689BB2C3EB02039BB2009302E094
:101410004FF000030093009B184602B07047C0468F
:1014200010B541F20403C2F200031B68184600F035
:1014300017F803461A4641F20403C2F200031A6089
:1014400041F22E03C2F200031B88184600F030F868
:1014500003461A4641F22E03C2F200031A8010BD61
:1014600000B583B00190019B002B09D0019800F0DA
:101470000FF80346C3F10002019B1344009302E0FE
:101480004FF000030093009B184603B000BDC04618
:1014900082B00190019BA3F105039A78DB784FEAB3
:1014A000032343EA02039BB2184602B07047C046CA
:1014B00000B583B00346ADF80630BDF80630002B0A
:1014C00011D0BDF80630184600F014F8034618464F
:1014D000FFF7DEFF03461A46BDF80630C2EB0303F2
:1014E0009BB2009302E04FF000030093009B18466C
:1014F00003B000BD82B00346ADF80630BDF806303B
:10150000002B09D043F23043C2F200031A68BDF841
:1015100006301A44009202E04FF000030093009B53
:10152000184602B07047C04641F20803C2F20003F9
:101530001A68917BD37B4FEA032343EA0101137CB2
:101540004FEA034343EA0101537C4FEA036343EA52
:1015500001031A46117953794FEA032343EA010143
:1015600093794FEA034343EA0101D3794FEA0363D6
:1015700043EA01031846704741F20803C2F2000330
:101580001B6818467047C04600B583B00346ADF8E7
:101590000630BDF90630184600F002F803B000BD71
:1015A00082B00346ADF8063041F21403C2F20003E4
:1015B0001A68BDF80630138041F21403C2F200032A
:1015C0001B6803F1020241F21403C2F200031A6025
:1015D00002B0704700B583B00190019800F002F8A6
:1015E00003B000BD82B0019041F21403C2F20003C7
:1015F0001A68019B9BB2138041F21403C2F20003EC
:101600001B6803F10202019B4FEA13439BB2138054
:1016100041F21403C2F200031B6803F1040241F219
:101620001403C2F200031A6002B0704700B583B021
:101630000346ADF80630BDF80630184600F002F853
:1016400003B000BD82B00346ADF8063041F2180386
:10165000C2F200031B68A3F1020241F21803C2F2B6
:1016600000031A6041F21803C2F200031A68BDF8C1
:101670000630138002B0704710B500F003F803463F
:10168000184610BD82B04FF00003019341F21403DD
:10169000C2F200031B68A3F1040241F21403C2F278
:1016A00000031A6041F21403C2F200031B681B8896
:1016B0001AB241F21403C2F200031B6803F10203E1
:1016C0001B881BB24FEA034313440193019B184646
:1016D00002B0704710B500F007F803469BB29BB20A
:1016E0001BB2184610BDC04641F21403C2F20003FB
:1016F0001B68A3F1020241F21403C2F200031A6054
:1017000041F21403C2F200031B681B881BB2184687
:101710007047C04610B500F003F80346184610BDE8
:1017200082B041F21803C2F200031B681B88ADF8B7
:10173000063041F21803C2F200031B6803F10202F3
:1017400041F21803C2F200031A60BDF806301846D1
:1017500002B0704710B500F007F803469BB29BB289
:101760001BB2184610BDC04641F21403C2F200037A
:101770001B68A3F102031B881BB218467047C046C2
:1017800010B500F003F80346184610BD41F21403EB
:10179000C2F200031B68A3F104031B6818467047DC
:1017A00010B500F003F80346184610BD41F21803C7
:1017B000C2F200031B681B881846704700B585B04D
:1017C000019041F20403C2F200031A68019BDBB2EC
:1017D000104619460AF0A8FF03460393039B002B0B
:1017E00003D104F0A3FF03460393039B002B03D113
:1017F0004FF02A0009F0E6FB039800F003F805B06B
:1018000000BDC04600B583B0019041F20C03C2F2A6
:1018100000031B880198194600F002F803B000BDD0
:1018200030B58BB001900B46ADF802304FF000039D
:101830008DF82230019800F0D5FA0346ADF8243037
:1018400041F20403C2F2000319680DF10F03BDF861
:10185000242018460CF038FC41F20C03C2F20003BD
:101860001B881C46019800F0BDFA03461D4641F254
:101870000803C2F200031B681A795B794FEA03235D
:1018800043EA02034FEA03434FEA23439BB21BB2EE
:1018900047F69830C0F2210021462A4613F0DAFFBD
:1018A00041F20C03C2F200031B88ADF802305FE284
:1018B00041F20803C2F200031A68917BD37B4FEA1E
:1018C000032343EA0101137C4FEA034343EA010186
:1018D000537C4FEA036343EA01031A4611795379B3
:1018E0004FEA032343EA010193794FEA034343EAB2
:1018F0000101D3794FEA036343EA01034FF000018A
:101900001946127A4FF0000362F30703084619469E
:1019100004F050FD03460793079B03F108031B786F
:101920004FEA03239AB2079B03F107031B7842EAAD
:1019300003039BB29BB21A46079B134403F10903AE
:101940001B788DF827304FF000038DF81B30CEE167
:10195000079B03F108031B784FEA03239AB2079B06
:1019600003F107031B7842EA03039BB29BB21A46BA
:10197000079B1A449DF81B304FEAC303134403F13D
:101980000A031978079B03F108031B784FEA032326
:101990009AB2079B03F107031B7842EA03039BB249
:1019A0009BB21A46079B1A449DF81B304FEAC303AB
:1019B000134403F10B031A780B468DF819301346C4
:1019C0008DF81A309DF81930FF2B04D14FF0010328
:1019D0008DF823303FE0FFF7A7FD014605A89DF8ED
:1019E00019209DF81A304FEA032343EA02024FF010
:1019F000000362F30F031A4603F014FF9DF80F2053
:101A00009DF810304FEA032343EA02029DF811309B
:101A10004FEA034343EA02029DF812304FEA0363A0
:101A200043EA02034FF0000018469DF813304FF0D0
:101A3000000263F307024FF00004059C9DF81810A4
:101A40004FF0000361F307031146224604F0F8F952
:101A500003468DF823309DF82330002B00F04181A0
:101A6000079B03F108031B784FEA03239AB2079BF5
:101A700003F107031B7842EA03039BB29BB21A46A9
:101A8000079B1A449DF81B304FEAC303134403F12C
:101A90000D031B784FEA032399B2079B03F1080358
:101AA0001B784FEA03239AB2079B03F107031B78C5
:101AB00042EA03039BB29BB21A46079B1A449DF865
:101AC0001B304FEAC303134403F10C031B780A468F
:101AD00042EA03039BB29AB2BDF802309342C0F0CF
:101AE0000081079B03F108031B784FEA03239AB296
:101AF000079B03F107031B7842EA03039BB29BB2E7
:101B00001A46079B1A449DF81B304FEAC30313443F
:101B100003F10F031B784FEA032399B2079B03F1EC
:101B200008031B784FEA03239AB2079B03F10703CC
:101B30001B7842EA03039BB29BB21A46079B1A44E6
:101B40009DF81B304FEAC303134403F10E031B78C7
:101B50000A4642EA03039BB29AB2BDF802309342AE
:101B600000F2BF80079B03F108031B784FEA0323B1
:101B70009AB2079B03F107031B7842EA03039BB267
:101B80009BB21A46079B1A449DF81B304FEAC303C9
:101B9000134403F111031B784FEA032399B2079B07
:101BA00003F108031B784FEA03239AB2079B03F162
:101BB00007031B7842EA03039BB29BB21A46079BBA
:101BC0001A449DF81B304FEAC303134403F110037A
:101BD0001B780A4642EA03039BB29AB241F20C0315
:101BE000C2F200031A8041F20803C2F200031A682D
:101BF000917BD37B4FEA032343EA0101137C4FEA35
:101C0000034343EA0101537C4FEA036343EA0103C0
:101C100003F10D0241F21403C2F200031A6041F213
:101C20000803C2F200031A68917BD37B4FEA0323B7
:101C300043EA0101137C4FEA034343EA0101537C69
:101C40004FEA036343EA01031C4641F20803C2F270
:101C500000031A68917BD37B4FEA032343EA010117
:101C6000137C4FEA034343EA0101537C4FEA0363C9
:101C700043EA01031A46117953794FEA032343EAF1
:101C8000010193794FEA034343EA0101D3794FEA13
:101C9000036343EA01034FF000011946127A4FF043
:101CA000000362F307030846194604F083FB03466A
:101CB00003F105031B784FEA430303F10D0304EB23
:101CC000030241F21803C2F200031A600198FFF701
:101CD0008DFB03461846FFF7B5FC4FF001038DF866
:101CE00022309DF81B3003F101038DF81B309DF865
:101CF0001B209DF827309A4204D29DF82230002BF9
:101D00003FF426AE9DF82230002B31D141F208037A
:101D1000C2F200031B6818460CF06AFD0346184621
:101D200004F0B8FC41F20803C2F200031A68917B88
:101D3000D37B4FEA032343EA0101137C4FEA0343B9
:101D400043EA0101537C4FEA036343EA0103002B9A
:101D500007D041F20803C2F200031B681846FFF7E0
:101D60000DF941F20C03C2F200031B88ADF80230FA
:101D70009DF82230002B17D141F20803C2F2000374
:101D80001A68917BD37B4FEA032343EA0101137C5A
:101D90004FEA034343EA0101537C4FEA036343EAFA
:101DA0000103002B7FF484AD9DF82230002B16D167
:101DB00041F20803C2F200031A684FF0070393715F
:101DC000FFF746F89DF8133047F6D830C0F22100EF
:101DD000194613F03FFD4FF02D0009F0F3F80BB05A
:101DE00030BDC04682B00190019BA3F105031B7971
:101DF000184602B07047C04610B58AB0019041F253
:101E00003003C2F20003019A1A6001F0A8B841F24F
:101E10003003C2F200031B6803F1FF3241F23003CA
:101E2000C2F200031A6001F099FC03468DF80D30F0
:101E30009DF80D30B52B01F28E8001A252F823F0EF
:101E40005F2F20007F2620008B2620009726200071
:101E5000A3262000AF262000BB262000C726200096
:101E60002B26200037262000432620004F26200066
:101E70005B2620006726200073262000E128200032
:101E8000E5262000D32620000F272000FB26200077
:101E900023272000332720006F28200089282000D6
:101EA0009F282000B5282000CB2820009D27200057
:101EB000B3272000C5272000D7272000E9272000CE
:101EC000EB282000012920001329200025292000CB
:101ED00037292000FB272000172820002D2820006C
:101EE00043282000592820003B27200055272000A8
:101EF00067272000792720008B2720004929200010
:101F000061292000732920008529200097292000BD
:101F1000AF2E2000B52E2000BB2E2000C12E2000A9
:101F2000C72E2000912E2000972E20009D2E2000ED
:101F3000A32E2000A92E2000A9292000C3292000BB
:101F4000DD292000132A2000B32B2000572F20006A
:101F5000472C2000612C20007B2C2000B12C20007D
:101F6000072D20003B2D2000572F2000152F20008B
:101F70001B2F2000212F2000092F20000F2F2000D1
:101F8000332F2000392F20003F2F2000272F200043
:101F90002D2F2000D92E2000DF2E2000E52E20003E
:101FA000CD2E2000D32E2000F72E2000FD2E200065
:101FB000032F2000EB2E2000F12E2000AB2220006A
:101FC000DB2220000D2320003B23200011242000D1
:101FD00069232000E323200083232000B123200075
:101FE000492420007B242000AD242000192120005A
:101FF000392120005B2120007D21200019222000B2
:102000009F212000F7212000B3212000D5212000AE
:10201000452220006722200089222000572F20001F
:10202000C12520006B2520002325200057252000F6
:10203000DF2420000F252000D12D2000D72D2000E7
:10204000DD2D2000E32D2000E92D2000EF2D2000C4
:10205000252E20002B2E2000AD2D2000B32D20009A
:10206000B92D2000BF2D2000C52D2000CB2D200034
:10207000892D20008F2D2000952D20009B2D2000E4
:10208000A12D2000A72D2000192E20001F2E20009A
:10209000832D2000572F2000452F20004B2F20009C
:1020A0003D2E2000372E2000432E2000312E200010
:1020B000552E20004F2E2000492E20005B2E2000A0
:1020C0006D2E20007F2E2000852E20008B2E2000DC
:1020D000512F2000792E2000732E2000612E200029
:1020E000672E2000F12B200095252000F5252000EB
:1020F000F72420003D2520005F2F2000692A2000C2
:10210000F52D2000FB2D2000012E2000072E2000A1
:102110000D2E2000132E2000FFF7B4FA034606937D
:10212000FFF7B0FA03460593059A069B1344184639
:10213000FFF758FA00F013BFFFF7A4FA034606931F
:10214000FFF7A0FA03460593059A069BC3EB02032B
:102150001846FFF747FA00F002BFFFF793FA03466D
:102160000693FFF78FFA03460593059A069B03FB38
:1021700002F31846FFF736FA00F0F1BEFFF782FAD5
:1021800003460693FFF77EFA03460593059A069BDE
:1021900092FBF3F31846FFF725FA00F0E0BEFFF7D5
:1021A00071FA0346C3F100031846FFF71BFA00F06B
:1021B000D6BEFFF767FA03460693FFF763FA0346B6
:1021C0000593059A069B42FA03F31846FFF70AFAAD
:1021D00000F0C5BEFFF756FA03460693FFF752FA22
:1021E00003460593059A069B22FA03F31846FFF768
:1021F000F9F900F0B4BEFFF745FA03460693FFF77E
:1022000041FA03460593059A069B02FA03F3184622
:10221000FFF7E8F900F0A3BEFFF734FA0346069390
:10222000FFF730FA034605930599069B91FBF3F2FD
:10223000069B03FB02F3C3EB01031846FFF7D2F939
:1022400000F08DBEFFF71EFA03460693FFF71AFA59
:1022500003460593059A069B02EA03031846FFF717
:10226000C1F900F07CBEFFF70DFA03460693FFF7B5
:1022700009FA03460593059A069B42EA03031846AA
:10228000FFF7B0F900F06BBEFFF7FCF903460693C9
:10229000FFF7F8F903460593059A069B82EA0303C4
:1022A0001846FFF79FF900F05ABEFFF71DFA0346E4
:1022B0009BB21BB20693FFF717FA03469BB21BB201
:1022C0000593059B9AB2069B9BB213449BB21BB22B
:1022D0001846FFF765F900F042BEFFF705FA03461E
:1022E0009BB21BB20693FFF7FFF903469BB21BB2EA
:1022F0000593059B9AB2069B9BB2C3EB02039BB26C
:102300001BB21846FFF74CF900F029BEFFF7ECF9B5
:1023100003469BB21BB20693FFF7E6F903469BB256
:102320001BB20593059A069B03FB02F39BB21BB2FB
:102330001846FFF735F900F012BEFFF7D5F903464E
:102340009BB21BB20693FFF7CFF903469BB21BB2B9
:102350000593059A069B92FBF3F39BB21BB21846BA
:10236000FFF71EF900F0FBBDFFF7BEF903469BB275
:10237000C3F100039BB21BB21846FFF711F900F03E
:10238000EEBDFFF7B1F903469BB21BB20693FFF710
:10239000ABF903469BB21BB20593059A069B42FA22
:1023A00003F39BB21BB21846FFF7FAF800F0D7BD53
:1023B000FFF79AF903469BB21BB20693FFF794F915
:1023C00003469BB21BB20593059B9BB21A46069B24
:1023D00042FA03F39BB21BB21846FFF7E1F800F094
:1023E000BEBDFFF781F903469BB21BB20693FFF710
:1023F0007BF903469BB21BB20593059A069B02FA32
:1024000003F39BB21BB21846FFF7CAF800F0A7BD52
:10241000FFF76AF903469BB21BB20693FFF764F914
:1024200003469BB21BB205930599069B91FBF3F201
:10243000069B03FB02F3C3EB01039BB21BB21846DE
:10244000FFF7AEF800F08BBDFFF74EF903469BB2E5
:102450001BB20693FFF748F903469BB21BB20593E4
:10246000059B9AB2069B9BB202EA03039BB21BB286
:102470001846FFF795F800F072BDFFF735F90346EF
:102480009BB21BB20693FFF72FF903469BB21BB218
:102490000593059B9AB2069B9BB242EA03039BB24B
:1024A0001BB21846FFF77CF800F059BDFFF71CF986
:1024B00003469BB21BB20693FFF716F903469BB285
:1024C0001BB20593059B9AB2069B9BB282EA03035B
:1024D0009BB21BB21846FFF763F800F040BDFFF750
:1024E000D1F80346DBB25BB29BB21BB21846FFF7D2
:1024F00057F800F034BDFFF7C5F80346DBB25BB216
:102500009BB21BB21846FFF74BF800F028BDFFF74F
:10251000B9F803469BB21BB21846FFF741F800F02A
:102520001EBDFFF7E1F803469BB2DBB25BB29BB284
:102530001BB21846FFF734F800F011BDFFF7D4F8CE
:1025400003469BB2DBB25BB29BB21BB21846FFF7ED
:1025500027F800F004BDFFF7C7F803469BB21BB293
:102560001846FFF73FF800F0FABC01F0F7F8034611
:10257000059301F0F3F803465BB20693059800F06B
:10258000F9FF0246069B13440598194600F0C4FF64
:1025900000F0E5BC01F0E2F80346059300F0F0FC22
:1025A00003469BB21BB20693059800F0E3FF024678
:1025B000069B13440598194600F0AEFF00F0CFBC0F
:1025C00001F0CCF80346059301F0C8F803465BB26E
:1025D0000693059801F02EF803469BB29AB2069B2B
:1025E0009BB213449BB21BB20598194600F0F0FF52
:1025F00000F0B5BC01F0B2F80346059300F0C0FC52
:1026000003469BB21BB20693059801F013F80346EC
:102610009BB29AB2069B9BB213449BB21BB2059825
:10262000194600F0D5FF00F09ABC4FF0FF30FEF7DE
:10263000D9FF00F094BC4FF00000FEF7D3FF00F08C
:102640008EBC4FF00100FEF7CDFF00F088BC4FF0CC
:102650000200FEF7C7FF00F082BC4FF00300FEF758
:10266000C1FF00F07CBC4FF00400FEF7BBFF00F0A0
:1026700076BC4FF00500FEF7B5FF00F070BC4FF0E0
:10268000FF30FEF78DFF00F06ABC4FF00000FEF750
:1026900087FF00F064BC4FF00100FEF781FF00F0FF
:1026A0005EBC4FF00200FEF77BFF00F058BC4FF01D
:1026B0000300FEF775FF00F052BC4FF00400FEF778
:1026C0006FFF00F04CBC4FF00500FEF769FF00F013
:1026D00046BC01F043F803465BB21846FEF782FFA2
:1026E00000F03DBC01F03AF803465BB29BB21BB26E
:1026F0001846FEF755FF00F032BC00F041FC0346DF
:102700009BB21BB21846FEF76DFF00F028BC00F02C
:1027100037FC03469BB21BB21846FEF741FF00F0A0
:102720001EBC00F067FC03461846FEF75BFF00F096
:1027300016BC00F0B9FC00F012BC01F00FF8034623
:102740001C46FEF79FFF03462046194600F0E4FEB4
:1027500000F005BCFEF796FF03464FF00000194657
:1027600000F0DAFEFBE3FEF78DFF03464FF00100B9
:10277000194600F0D1FEF2E3FEF784FF03464FF066
:102780000200194600F0C8FEE9E3FEF77BFF0346AE
:102790004FF00300194600F0BFFEE0E300F0DEFF5B
:1027A0000346184600F0E6FE03461846FEF71AFFF9
:1027B000D5E34FF0000000F0DDFE03461846FEF7BB
:1027C00011FFCCE34FF0010000F0D4FE03461846A1
:1027D000FEF708FFC3E34FF0020000F0CBFE034614
:1027E0001846FEF7FFFEBAE34FF0030000F0C2FE0A
:1027F00003461846FEF7F6FEB1E300F0AFFF0346CE
:102800001C46FEF771FF03469BB21BB220461946D9
:1028100000F0DEFEA3E3FEF767FF03469BB21BB2A8
:102820004FF00000194600F0D3FE98E3FEF75CFF7E
:1028300003469BB21BB24FF00100194600F0C8FEE0
:102840008DE3FEF751FF03469BB21BB24FF002002F
:10285000194600F0BDFE82E3FEF746FF03469BB239
:102860001BB24FF00300194600F0B2FE77E300F010
:1028700075FF0346184600F0DDFE03469BB21BB20F
:102880001846FEF78DFE6AE34FF0000000F0D2FE1E
:1028900003469BB21BB21846FEF782FE5FE34FF081
:1028A000010000F0C7FE03469BB21BB21846FEF7BC
:1028B00077FE54E34FF0020000F0BCFE03469BB2EB
:1028C0001BB21846FEF76CFE49E34FF0030000F020
:1028D000B1FE03469BB21BB21846FEF761FE3EE313
:1028E0004FF00000FEF7AEFE39E300F037FF03467D
:1028F000184600F0CFFE03461846FEF7A3FE2EE36F
:102900004FF0000000F0C6FE03461846FEF79AFEA0
:1029100025E34FF0010000F0BDFE03461846FEF728
:1029200091FE1CE34FF0020000F0B4FE034618468F
:10293000FEF788FE13E34FF0030000F0ABFE034602
:102940001846FEF77FFE0AE300F008FF03461C4628
:10295000FEF7E6FE03462046194600F0CBFEFEE2F7
:10296000FEF7DEFE03464FF00000194600F0C2FEFF
:10297000F5E2FEF7D5FE03464FF00100194600F0E0
:10298000B9FEECE2FEF7CCFE03464FF0020019461A
:1029900000F0B0FEE3E2FEF7C3FE03464FF0030093
:1029A000194600F0A7FEDAE241F21403C2F2000376
:1029B0001B68A3F1020241F21403C2F200031A6081
:1029C000CDE241F21403C2F200031B68A3F104023A
:1029D00041F21403C2F200031A60C0E241F2140390
:1029E000C2F200031A6841F21403C2F200031B682A
:1029F000A3F102031B88138041F21403C2F2000307
:102A00001B6803F1020241F21403C2F200031A60D0
:102A1000A5E241F21403C2F200031B6803F10202B3
:102A200041F21403C2F200031B68A3F102031B88E6
:102A3000138041F21403C2F200031A6841F2140336
:102A4000C2F200031B68A3F104031B88138041F248
:102A50001403C2F200031B6803F1040241F21403E1
:102A6000C2F200031A607AE200F078FE03468DF8A5
:102A70000E309DF80E3003F00F038DF80F309DF8E7
:102A80000E304FEA13138DF80E3041F21403C2F2E8
:102A900000031A689DF80E304FEA43031A4441F2CE
:102AA0001403C2F200031A609DF80F30002B2AD1E4
:102AB0004FF00003049320E041F21403C2F200033C
:102AC00019689DF80E20049B134403F101034FEA9B
:102AD0004303C3F10003194441F21403C2F200039B
:102AE0001A68049B6FEA03034FEA430313441B88ED
:102AF0000B80049B03F1010304939DF80E20049BBB
:102B00009A42D9DC2BE24FF00003049321E041F21A
:102B10001403C2F200031A68049B6FEA03034FEA2E
:102B2000430302EB030041F21403C2F200031968ED
:102B30009DF80E20049B134403F101034FEA430365
:102B4000C3F100030B441B880380049B03F10103C2
:102B500004939DF80F20049B9A42D8DC4FF00003A9
:102B6000049320E041F21403C2F2000319689DF8B7
:102B70000F20049B134403F101034FEA4303C3F105
:102B80000003194441F21403C2F200031A68049BC3
:102B90006FEA03034FEA430313441B880B80049B33
:102BA00003F1010304939DF80E20049B9A42D9DCA3
:102BB000D5E1FEF799FD03469BB21BB20593FEF7E4
:102BC00093FD03469BB21BB20693059B9BB21BB2BF
:102BD0001846FEF7E5FC069B9BB21BB21846FEF7B3
:102BE000DFFC059B9BB21BB21846FEF7D9FCB6E191
:102BF000FEF77AFD03469BB21BB20593FEF774FD08
:102C000003469BB21BB20693FEF76EFD03469BB2D2
:102C10001BB20793059B9BB21BB21846FEF7C0FC84
:102C2000079B9BB21BB21846FEF7BAFC069B9BB2F1
:102C30001BB21846FEF7B4FC059B9BB21BB21846AC
:102C4000FEF7AEFC8BE141F21803C2F200031B68F1
:102C500003F1020241F21803C2F200031A607EE19E
:102C600041F21803C2F200031B6803F1040241F2AF
:102C70001803C2F200031A6071E141F21803C2F2B4
:102C800000031B68A3F1020241F21803C2F2000321
:102C90001A6041F21803C2F200031A6841F21803E5
:102CA000C2F200031B6803F102031B88138056E184
:102CB00041F21803C2F200031B68A3F1040241F2BF
:102CC0001803C2F200031A6041F21803C2F20003B3
:102CD0001A6841F21803C2F200031B6803F10403EF
:102CE0001B88138041F21803C2F200031B6803F132
:102CF000020241F21803C2F200031B6803F106034B
:102D00001B8813802BE1FEF70BFD0346ADF8223044
:102D1000FEF706FD0346ADF82430BDF82230184614
:102D2000FEF790FCBDF824301846FEF78BFCBDF88A
:102D300022301846FEF786FC11E1FEF7F1FC03464F
:102D4000ADF82230FEF7ECFC0346ADF82430FEF778
:102D5000E7FC0346ADF82630BDF822301846FEF7F2
:102D600071FCBDF826301846FEF76CFCBDF8243027
:102D70001846FEF767FCBDF822301846FEF762FCE5
:102D8000EDE000F00DFDEAE000F052FDE7E000F0BC
:102D90006FFDE4E000F08CFDE1E000F0A9FDDEE075
:102DA00000F0C6FDDBE000F0E3FDD8E000F000FE3F
:102DB000D5E000F023FED2E000F046FECFE000F0C8
:102DC00069FECCE000F08CFEC9E000F0AFFEC6E08A
:102DD00000F0D2FEC3E000F0E7FEC0E000F0FCFE31
:102DE000BDE000F011FFBAE000F026FFB7E000F010
:102DF0003BFFB4E000F050FFB1E000F067FFAEE051
:102E000000F07EFFABE000F095FFA8E000F0ACFF23
:102E1000A5E000F0C3FFA2E000F0DAFF9FE000F0C1
:102E2000FBFF9CE001F01CF899E001F031F896E01E
:102E300001F046F893E001F0E5F890E001F0F0F8D9
:102E40008DE001F0FFF88AE001F00CF987E001F075
:102E5000D3F984E001F016FA81E001F0B9FA7EE0DE
:102E600001F0BAFA7BE001F083FB78E001F0ECFBC3
:102E700075E001F073FC72E001F0FAFC6FE001F024
:102E800035FD6CE001F054FD69E001F0B3FD66E052
:102E900001F0D0FD63E001F003FE60E001F004FE0C
:102EA0005DE001F04BFE5AE001F0A8FE57E001F0B2
:102EB000EDFE54E001F01EFF51E001F01FFF4EE077
:102EC00001F05CFF4BE001F0A3FF48E001F0DCFF04
:102ED00045E002F03DF842E002F06AF83FE002F01F
:102EE0009DF83CE002F09EF839E002F0D1F836E0BF
:102EF00002F002F933E002F02FF930E002F060F95D
:102F00002DE002F061F92AE002F094F927E002F0E6
:102F1000C5F924E002F00CFA21E002F03FFA1EE0CD
:102F200002F040FA1BE002F071FA18E002F0A4FA95
:102F300015E002F0EFFA12E002F024FB0FE002F0DD
:102F400025FB0CE002F05AFB09E002F0B9FB06E0B9
:102F500002F052FC03E04FF02000FEF72FFC41F29C
:102F60003003C2F200031B68002B3EF750AF41F262
:102F70003003C2F200031B6818460AB010BDC046F9
:102F800082B041F20C03C2F200031B881A4641F2E0
:102F90001003C2F200031B6813441B784FEA03239B
:102FA00099B241F20C03C2F200031B881A4641F2A7
:102FB0001003C2F200031B68134403F101031B78E2
:102FC0000A4642EA03039BB2ADF8063041F20C0315
:102FD000C2F200031B8803F102039AB241F20C0310
:102FE000C2F200031A80BDF806301BB2184602B0C8
:102FF0007047C04682B041F20C03C2F200031B8846
:103000001A4641F21003C2F200031B6813441B78F6
:103010004FEA036141F20C03C2F200031B881A4617
:1030200041F21003C2F200031B68134403F10103D1
:103030001B784FEA034341EA030141F20C03C2F259
:1030400000031B881A4641F21003C2F200031B68FA
:10305000134403F102031B784FEA032341EA0301FF
:1030600041F20C03C2F200031B881A4641F210031E
:10307000C2F200031B68134403F103031B7841EA07
:103080000303019341F20C03C2F200031B8803F116
:1030900004039AB241F20C03C2F200031A80019BAE
:1030A000184602B07047C04630B589B000F016FA35
:1030B00002B213468DF80030C2F307238DF80130B9
:1030C000BDF80030ADF81030FEF72EFA04460DF1D1
:1030D0000B01BDF810204FF0000362F30F03084608
:1030E00021461A4602F09EFB9DF80B209DF80C30FD
:1030F0004FEA032343EA02029DF80D304FEA0343EF
:1031000043EA02029DF80E304FEA036343EA0203EA
:103110001A46117B537B4FEA032343EA0101937B59
:103120004FEA034343EA0101D37B4FEA036343EAD7
:10313000010318469DF80B209DF80C304FEA03233D
:1031400043EA02029DF80D304FEA034343EA0202CC
:103150009DF80E304FEA036343EA02031A46117BDF
:10316000537B4FEA032343EA0101937B4FEA034376
:1031700043EA0101D37B4FEA036343EA01031A46A2
:103180009DF80F304FEA4303134403F104031B7807
:103190004FEA03239CB29DF80B209DF80C304FEAB8
:1031A000032343EA02029DF80D304FEA034343EA4A
:1031B00002029DF80E304FEA036343EA02031A4607
:1031C000117B537B4FEA032343EA0101937B4FEAD0
:1031D000034343EA0101D37B4FEA036343EA01035C
:1031E0001A469DF80F304FEA4303134403F10303DB
:1031F0001B78224642EA03039BB29BB2034403F1CD
:10320000020305939DF80B209DF80C304FEA032331
:1032100043EA02029DF80D304FEA034343EA0202FB
:103220009DF80E304FEA036343EA02031A46117B0E
:10323000537B4FEA032343EA0101937B4FEA0343A5
:1032400043EA0101D37B4FEA036343EA01031846D3
:103250009DF80B209DF80C304FEA032343EA02024D
:103260009DF80D304FEA034343EA02029DF80E3009
:103270004FEA036343EA02031A46117B537B4FEA8A
:10328000032343EA0101937B4FEA034343EA01012D
:10329000D37B4FEA036343EA01031A469DF80F30DC
:1032A0004FEA4303134403F104031B784FEA03235B
:1032B0009CB29DF80B209DF80C304FEA032343EAA3
:1032C00002029DF80D304FEA034343EA02029DF8E3
:1032D0000E304FEA036343EA02031A46117B537B25
:1032E0004FEA032343EA0101937B4FEA034343EA96
:1032F0000101D37B4FEA036343EA01031A469DF8B9
:103300000F304FEA4303134403F103031B782246B3
:1033100042EA03039BB29BB2034403F101031B780F
:103320004FEA032398B29DF80B209DF80C304FEA2A
:10333000032343EA02029DF80D304FEA034343EAB8
:1033400002029DF80E304FEA036343EA02031A4675
:10335000117B537B4FEA032343EA0101937B4FEA3E
:10336000034343EA0101D37B4FEA036343EA0103CA
:103370001C469DF80B209DF80C304FEA032343EACE
:1033800002029DF80D304FEA034343EA02029DF822
:103390000E304FEA036343EA02031A46117B537B64
:1033A0004FEA032343EA0101937B4FEA034343EAD5
:1033B0000101D37B4FEA036343EA01031A469DF8F8
:1033C0000F304FEA4303134403F104031B784FEA21
:1033D00003239DB29DF80B209DF80C304FEA032388
:1033E00043EA02029DF80D304FEA034343EA02022A
:1033F0009DF80E304FEA036343EA02031A46117B3D
:10340000537B4FEA032343EA0101937B4FEA0343D3
:1034100043EA0101D37B4FEA036343EA01031A46FF
:103420009DF80F304FEA4303134403F103031B7865
:103430002A4642EA03039BB29BB223441B7802460E
:1034400042EA03039BB2ADF81A30BDF81A3003F11B
:1034500001039CB2FDF7F4FC034618464FF01C0133
:1034600009F0F4F803462046194603F09BF803469A
:103470000793079B002B04D14FF01600FEF79EF92F
:1034800029E04FF00003ADF8123010E0BDF8122033
:10349000079B1A44059B1B781370059B03F10103DE
:1034A0000593BDF8123003F10103ADF81230BDF8F9
:1034B0001220BDF81A309A42E8D3BDF81A20079BB3
:1034C0001A444FF0000313700798FDF78FFF03466F
:1034D0001846FEF7B7F809B030BDC04600B583B056
:1034E00000F03CF903468DF8043000F037F903464C
:1034F0008DF80530BDF80430ADF806304FF000030C
:103500009DF8062062F307039DF8072062F30F235E
:10351000184603B000BDC04682B00190009141F250
:103520002D03C2F200031B781A46019B9A420CDD60
:1035300041F22803C2F200031B681A46019B4FEABE
:1035400043031A44009B136012E041F22003C2F2CD
:1035500000031968019A41F22D03C2F200031B789F
:10356000C3EB02034FEA43030B441A46009B13606C
:1035700002B0704782B0019041F22D03C2F2000305
:103580001B781A46019B9A420CDD41F22803C2F2D5
:1035900000031B681A46019B4FEA430313441B6850
:1035A000009311E041F22003C2F200031968019A6E
:1035B00041F22D03C2F200031B78C3EB02034FEA72
:1035C00043030B441B680093009B184602B07047EE
:1035D00082B001900B46ADF8023041F22D03C2F2E9
:1035E00000031B781A46019B9A420CDD41F2280326
:1035F000C2F200031A68019B4FEA43031A44BDF864
:103600000230138014E041F22003C2F20003196873
:1036100041F22D03C2F200031B781A46019BC2EB54
:1036200003034FEA430301EB0302BDF802301380AA
:1036300002B0704782B0019041F22D03C2F2000344
:103640001B781A46019B9A420BDD41F22803C2F215
:1036500000031A68019B4FEA430313441B8800933D
:1036600012E041F22003C2F20003196841F22D0377
:10367000C2F200031B781A46019BC2EB03034FEA18
:1036800043030B441B880093009A13B2184602B000
:103690007047C04682B0019041F22C03C2F2000391
:1036A0001B781A46019B9A420DDD41F22403C2F2B7
:1036B00000031A68019B4FEA4303C3F1000313445C
:1036C0001B88009312E041F21C03C2F20003196848
:1036D00041F22C03C2F200031B781A46019BC2EB95
:1036E00003034FEA43030B441B880093009B1846D7
:1036F00002B0704782B001900B46ADF8023041F243
:103700002C03C2F200031B781A46019B9A420EDD7D
:1037100041F22403C2F200031A68019B4FEA4303FB
:10372000C3F100031A44BDF80230138014E041F2E3
:103730001C03C2F20003196841F22C03C2F2000319
:103740001B781A46019BC2EB03034FEA430301EBCC
:103750000302BDF80230138002B0704782B041F21C
:103760000C03C2F200031B881A4641F21003C2F296
:1037700000031B6813441B788DF8073041F20C03DB
:10378000C2F200031B8803F101039AB241F20C0359
:10379000C2F200031A809DF80730184602B0704745
:1037A00010B500F00BF803469BB29BB203F1FF3358
:1037B0009BB21BB2184600F027F810BD41F20C0373
:1037C000C2F200031B881A4641F21003C2F2000342
:1037D0001B6813441B784FEA032399B241F20C0390
:1037E000C2F200031B881A4641F21003C2F2000322
:1037F0001B68134403F101031B780A4642EA0303E2
:103800009BB21BB21846704782B00346ADF8063033
:1038100041F20C03C2F200031A88BDF806301344CB
:103820009AB241F20C03C2F200031A8002B0704750
:1038300000B585B0FDF726FF03460293FDF722FF92
:1038400003460193FFF79CFB03469BB2ADF80E3095
:10385000019A029B9A4208D1BDF80E30A3F10303EE
:103860009BB21BB21846FFF7CFFF05B000BDC046A4
:1038700000B585B0FDF706FF03460293FDF702FF92
:1038800003460193FFF77CFB03469BB2ADF80E3075
:10389000019A029B9A4208D0BDF80E30A3F10303AF
:1038A0009BB21BB21846FFF7AFFF05B000BDC04684
:1038B00000B585B0FDF7E6FE03460293FDF7E2FE94
:1038C00003460193FFF75CFB03469BB2ADF80E3055
:1038D000019A029B9A4208DABDF80E30A3F1030365
:1038E0009BB21BB21846FFF78FFF05B000BDC04664
:1038F00000B585B0FDF7C6FE03460293FDF7C2FE94
:1039000003460193FFF73CFB03469BB2ADF80E3034
:10391000019A029B9A4208DBBDF80E30A3F1030323
:103920009BB21BB21846FFF76FFF05B000BDC04643
:1039300000B585B0FDF7A6FE03460293FDF7A2FE93
:1039400003460193FFF71CFB03469BB2ADF80E3014
:10395000019A029B9A4208DDBDF80E30A3F10303E1
:103960009BB21BB21846FFF74FFF05B000BDC04623
:1039700000B585B0FDF786FE03460293FDF782FE93
:1039800003460193FFF7FCFA03469BB2ADF80E30F5
:10399000019A029B9A4208DCBDF80E30A3F10303A2
:1039A0009BB21BB21846FFF72FFF05B000BDC04603
:1039B00000B583B0FDF798FE03469BB2ADF8043026
:1039C000FDF792FE03469BB2ADF80230FFF7D8FA3E
:1039D00003469BB2ADF80630BDF90220BDF90430B4
:1039E0009A4208D1BDF80630A3F103039BB21BB283
:1039F0001846FFF709FF03B000BDC04600B583B00D
:103A0000FDF772FE03469BB2ADF80430FDF76CFE85
:103A100003469BB2ADF80230FFF7B2FA03469BB201
:103A2000ADF80630BDF90220BDF904309A4208D045
:103A3000BDF80630A3F103039BB21BB21846FFF793
:103A4000E3FE03B000BDC04600B583B0FDF74CFEF9
:103A500003469BB2ADF80430FDF746FE03469BB229
:103A6000ADF80230FFF78CFA03469BB2ADF8063092
:103A7000BDF90220BDF904309A4208DABDF80630DB
:103A8000A3F103039BB21BB21846FFF7BDFE03B0C0
:103A900000BDC04600B583B0FDF726FE03469BB2CD
:103AA000ADF80430FDF720FE03469BB2ADF80230BE
:103AB000FFF766FA03469BB2ADF80630BDF9022067
:103AC000BDF904309A4208DBBDF80630A3F10303C8
:103AD0009BB21BB21846FFF797FE03B000BDC0466D
:103AE00000B583B0FDF700FE03469BB2ADF804308D
:103AF000FDF7FAFD03469BB2ADF80230FFF740FA3E
:103B000003469BB2ADF80630BDF90220BDF9043082
:103B10009A4208DDBDF80630A3F103039BB21BB245
:103B20001846FFF771FE03B000BDC04600B583B074
:103B3000FDF7DAFD03469BB2ADF80430FDF7D4FD86
:103B400003469BB2ADF80230FFF71AFA03469BB268
:103B5000ADF80630BDF90220BDF904309A4208DC08
:103B6000BDF80630A3F103039BB21BB21846FFF762
:103B70004BFE03B000BDC04600B583B0FFF700FAAE
:103B800003469BB2ADF80630FDF77CFD0346002BE3
:103B900008D1BDF80630A3F103039BB21BB218464F
:103BA000FFF732FE03B000BD00B583B0FFF7E8F9C0
:103BB00003469BB2ADF80630FDF764FD0346002BCB
:103BC00008D0BDF80630A3F103039BB21BB2184620
:103BD000FFF71AFE03B000BD00B583B0FFF7D0F9C0
:103BE00003469BB2ADF80630FDF74CFD0346002BB3
:103BF00008DABDF80630A3F103039BB21BB21846E6
:103C0000FFF702FE03B000BD00B583B0FFF7B8F9BF
:103C100003469BB2ADF80630FDF734FD0346002B9A
:103C200008DBBDF80630A3F103039BB21BB21846B4
:103C3000FFF7EAFD03B000BD00B583B0FFF7A0F9C0
:103C400003469BB2ADF80630FDF71CFD0346002B82
:103C500008DDBDF80630A3F103039BB21BB2184682
:103C6000FFF7D2FD03B000BD00B583B0FFF788F9C0
:103C700003469BB2ADF80630FDF704FD0346002B6A
:103C800008DCBDF80630A3F103039BB21BB2184653
:103C9000FFF7BAFD03B000BD00B583B0FFF770F9C0
:103CA00003469BB2ADF80630FDF71EFD03469BB2FE
:103CB000002B08D1BDF80630A3F103039BB21BB261
:103CC0001846FFF7A1FD03B000BDC04600B583B0A4
:103CD000FFF756F903469BB2ADF80630FDF704FD39
:103CE00003469BB2002B08D0BDF80630A3F10303B6
:103CF0009BB21BB21846FFF787FD03B000BDC0465C
:103D000000B583B0FFF73CF903469BB2ADF806302F
:103D1000FDF7EAFC03469BB21BB2002B08DABDF8A4
:103D20000630A3F103039BB21BB21846FFF76CFDEC
:103D300003B000BD00B583B0FFF722F903469BB284
:103D4000ADF80630FDF7D0FC03469BB21BB2002B4A
:103D500008DBBDF80630A3F103039BB21BB2184683
:103D6000FFF752FD03B000BD00B583B0FFF708F9BF
:103D700003469BB2ADF80630FDF7B6FC03469BB296
:103D80001BB2002B08DDBDF80630A3F103039BB284
:103D90001BB21846FFF738FD03B000BD00B583B075
:103DA000FFF7EEF803469BB2ADF80630FDF79CFC3A
:103DB00003469BB21BB2002B08DCBDF80630A3F112
:103DC00003039BB21BB21846FFF71EFD03B000BDF4
:103DD00000B583B0FDF7A4FC0346ADF80230FDF753
:103DE0009FFC0346ADF80430FFF7CAF803469BB2C8
:103DF000ADF80630BDF80220BDF804309A4208D173
:103E0000BDF80630A3F103039BB21BB21846FFF7BF
:103E1000FBFC03B000BDC04600B583B0FDF780FCDD
:103E20000346ADF80230FDF77BFC0346ADF80430E5
:103E3000FFF7A6F803469BB2ADF80630BDF80220A6
:103E4000BDF804309A4208D0BDF80630A3F1030350
:103E50009BB21BB21846FFF7D7FC03B000BDC046AB
:103E600000B583B0FFF78CF803469BB2ADF806307F
:103E7000FDF756FC0346002B08D1BDF80630A3F130
:103E800003039BB21BB21846FFF7BEFC03B000BD94
:103E900000B583B0FFF774F803469BB2ADF8063067
:103EA000FDF73EFC0346002B08D0BDF80630A3F119
:103EB00003039BB21BB21846FFF7A6FC03B000BD7C
:103EC00010B500F001F810BD00B583B041F2080351
:103ED000C2F200031A68917BD37B4FEA032343EAC3
:103EE0000101137C4FEA034343EA0101537C4FEA8B
:103EF000036343EA01031A46117953794FEA032316
:103F000043EA010193794FEA034343EA0101D3797C
:103F10004FEA036343EA01034FF000011946127AA6
:103F20004FF0000362F307030846194602F042FA15
:103F30000346019341F20803C2F200031B681846CE
:103F40000AF056FC0346184602F0A4FB41F20803AF
:103F5000C2F200031A68917BD37B4FEA032343EA42
:103F60000101137C4FEA034343EA0101537C4FEA0A
:103F7000036343EA0103002B0AD141F20803C2F2B2
:103F800000031A684FF007039371FCF761FF36E0F6
:103F900041F20803C2F200031B681846FCF7EEFF6B
:103FA00041F21803C2F200031968019B1B781A46FC
:103FB000019B03F106031B7803F00203002B14BFDF
:103FC0000023012313444FEA430301EB030241F2B0
:103FD0001803C2F200031A6041F21403C2F2000394
:103FE0001A68019B03F101031B784FEA4303C3F1F5
:103FF00000031A4441F21403C2F200031A6003B032
:1040000000BDC04600B583B0FDF73CFB03460193FD
:10401000FFF75AFF0198FDF7E5FA03B000BDC0466F
:1040200000B583B0FDF760FB03469BB2ADF80630E8
:10403000FFF74AFFBDF906301846FDF7B1FA03B0A5
:1040400000BDC04600B583B0FDF76AFB0346ADF87E
:104050000630FFF739FFBDF806301846FDF7F2FAD3
:1040600003B000BD10B584B0FFF738FA02B21346B2
:104070008DF80030C2F307238DF80130BDF8003011
:10408000ADF80E30FDF750FA04460DF10901BDF808
:104090000E204FF0000362F30F03084621461A4634
:1040A00001F0C0FB9DF809209DF80A304FEA032378
:1040B00043EA02029DF80B304FEA034343EA02024F
:1040C0009DF80C304FEA036343EA02034FF000010E
:1040D00019469DF80D204FF0000362F307030846D0
:1040E00019464FF0000200F003F804B010BDC046BE
:1040F00000B589B002AB83E8030001924FF00001E4
:1041000002999DF80C204FF0000362F30703084664
:10411000194602F04FF903460793079B03F1060384
:104120001B7803F00103DBB2002B27D0029A117C2D
:10413000537C4FEA032343EA0101937C4FEA034394
:1041400043EA0101D37C4FEA036343EA0103069388
:10415000069B002B0DD04FF0000102999DF80C201A
:104160004FF0000362F30703069A0846194690478A
:104170003FE04FF02B00FDF721FB3AE04FF000014C
:1041800002999DF80C204FF0000362F307030846E4
:1041900019460BF059F803460593059B002B04D1F3
:1041A0004FF01B00FDF70AFB23E041F20803C2F2C7
:1041B00000031A68917BD37B4FEA032343EA010192
:1041C000137C4FEA034343EA0101537C4FEA036344
:1041D00043EA01031846FCF76FFE41F20803C2F2FE
:1041E00000031B68184605990AF09AFA0598FCF72F
:1041F000FFFE09B000BDC04610B584B0FFF76EF9F0
:1042000002B213468DF80030C2F307238DF8013057
:10421000BDF80030ADF80E30FDF786F904460DF11B
:104220000901BDF80E204FF0000362F30F030846AA
:1042300021461A4601F0F6FA9DF809209DF80A3049
:104240004FEA032343EA02029DF80B304FEA03438F
:1042500043EA02029DF80C304FEA036343EA02038B
:104260004FF0000119469DF80D204FF0000362F356
:104270000703084619464FF00102FFF739FF04B063
:1042800010BDC04610B588B0FFF728F902B213463A
:104290008DF80030C2F307238DF801300DF11903BA
:1042A0006A464FF0020418461146224612F06AFD93
:1042B000FFF754FA03468DF81B309DF81B30184663
:1042C00000F076F803461846FDF714F90346079305
:1042D000079B002B04D14FF01400FDF76FFA65E047
:1042E000079806F05BFE0346012B04D14FF028002F
:1042F000FDF764FA5AE0FDF717F9014605A89DF8A5
:1043000019209DF81A304FEA032343EA02024FF0C6
:10431000000362F30F031A4601F084FA0DF10F0057
:104320004FF0000105999DF818204FF0000362F34B
:1043300007031A46079B01F00FFF9DF80F209DF819
:1043400010304FEA032343EA02029DF811304FEA8E
:10435000034343EA02029DF812304FEA036343EA43
:104360000203002B22D09DF80F209DF810304FEA59
:10437000032343EA02029DF811304FEA034343EA64
:1043800002029DF812304FEA036343EA02034FF042
:10439000000119469DF813204FF0000362F3070354
:1043A000084619464FF00102FFF7A2FE08B010BD03
:1043B00082B0019041F21803C2F200031A68019B17
:1043C0004FEA430313441B88184602B07047C046A7
:1043D00010B5FFF757FF10BD10B584B0FDF79AF97F
:1043E0000346ADF80E30BDF80E30002B04D14FF06F
:1043F0001400FDF7E3F9B9E0BDF80E30184602F0FD
:104400009DF9FCF71DFD0446BDF80E301846FDF77A
:1044100071F803462046194609F0BCFA0346019399
:1044200002F0AEF90346ADF80E30019B002B04D12B
:104430004FF01600FDF7C2F998E0BDF80E301846AF
:10444000FDF758F803460293019B1B7A002B32D1EB
:10445000019A4FF00103137241F20803C2F2000304
:104460001868019C00F0FF014FF000031A460B464C
:1044700042EA030323714FEA102303F0FF014FF0D8
:1044800000031A460B4642EA030363714FEA1043E6
:1044900003F0FF014FF000031A460B4642EA030304
:1044A000A3714FEA10614FF000031A460B4642EA2F
:1044B0000303E3715AE0019A117953794FEA032318
:1044C00043EA010193794FEA034343EA0101D379B7
:1044D0004FEA036343EA01031A4641F20803C2F2BA
:1044E00000031B689A4207D1019B1B7A03F1010369
:1044F000DBB2019A137239E041F20803C2F2000301
:104500001A684FF00403937141F20803C2F20003EA
:1045100018689DF808104FF000031A460B4642EA4F
:10452000030383759DF809104FF000031A460B46EC
:1045300042EA0303C3759DF80A104FF000031A46C0
:104540000B4642EA030303769DF80B104FF000037D
:104550001A460B4642EA03034376019B5B7A03F15A
:104560000103DBB2019A5372FCF772FC04B010BD78
:1045700000B585B0FDF71AF903461846FCF7BAFFF7
:1045800003460293029806F009FD0346012B04D16D
:104590004FF02800FDF712F954E0029B002B04D1E4
:1045A0004FF01400FDF70AF94CE0FCF749FC034614
:1045B0001846029909F0EEF903460193019B002B7E
:1045C00004D14FF02000FDF7F9F83BE0FDF7A8F823
:1045D00003461846FCF78EFF03460293FCF7CCFF18
:1045E00003460393019B1B7A03F1FF33DBB2019A6D
:1045F0001372019A4FF0000313714FF000035371CF
:104600004FF0000393714FF00003D371019B1B7AAD
:10461000002B0AD1019B5B7A002B06D1FCF710FC22
:1046200003461846019909F0D9FB039A4FF000039D
:1046300093754FF00003D3754FF0000313764FF0DE
:104640000003537605B000BD10B586B0FEF746FFF7
:1046500002B213468DF80030C2F307238DF8013003
:10466000BDF80030ADF80E30FCF75EFF04460DF1EA
:104670000901BDF80E204FF0000362F30F03084656
:1046800021461A4601F0CEF89DF809209DF80A301F
:104690004FEA032343EA02029DF80B304FEA03433B
:1046A00043EA02029DF80C304FEA036343EA020337
:1046B0004FF0000119469DF80D204FF0000362F302
:1046C00007030846194601F065FE034604939DF86A
:1046D00009209DF80A304FEA032343EA02029DF8BD
:1046E0000B304FEA034343EA02029DF80C304FEAD5
:1046F000036343EA02034FF0000119469DF80D20C1
:104700004FF0000362F307030846194601F010FD5D
:1047100003461A46049B1B781946049B03F10103C8
:104720001B7810461A4606F009FC03460593059BC4
:10473000002B0AD147F6F030C0F2210011F04CF8FE
:104740004FF01600FDF73AF806E00598FCF74EFE2C
:1047500003461846FCF776FF06B010BD10B586B0CC
:10476000FEF7BCFE02B213468DF80030C2F30723F9
:104770008DF801300DF10B036A464FF00204184624
:104780001146224612F0FEFAFCF7CAFF0346ADF8C6
:104790001230BDF812301846FCF7ACFE0346059304
:1047A000BDF81230002B04D14FF00000FCF7F8FEEA
:1047B0005CE0059806F0F2FB0346012B04D14FF0B4
:1047C0002800FCF7FBFF51E0FCF7AEFE01460DF1BF
:1047D0000D009DF80B209DF80C304FEA032343EAAF
:1047E00002024FF0000362F30F031A4601F01AF8B9
:1047F0009DF80D209DF80E304FEA032343EA020294
:104800009DF80F304FEA034343EA02029DF810304F
:104810004FEA036343EA02034FF0000119469DF893
:1048200011204FF0000362F307030846194601F018
:104830005BFC0346002B04D04FF00100FCF7B0FEF8
:1048400014E09DF80B209DF80C304FEA032343EA57
:1048500002024FF0000362F30F030598194601F0BE
:1048600039FB03461BB21846FCF79AFE06B010BD92
:1048700000B585B0FEF732FE02B213468DF8003067
:10488000C2F307238DF80130BDF80030ADF80830D1
:10489000FCF78CFF0346ADF80A30BDF80A30184625
:1048A000FCF728FE03460393039B002B1BD00398C1
:1048B00006F074FB0346012B04D14FF02800FCF7EF
:1048C0007DFF10E0BDF808204FF0000362F30F03F6
:1048D0000398194601F0FEFA0346002B03D14FF06E
:1048E0000800FCF76BFF05B000BDC04610B582B0F4
:1048F000FEF734FF03461C46FCF7F6FE03469BB268
:104900009BB220461946FBF705FF03460193019B26
:10491000002B04D14FF01600FCF750FF06E0019881
:10492000FCF764FD03461846FCF78CFE02B010BD90
:1049300010B586B0FEF7D2FD02B213468DF80030F6
:10494000C2F307238DF80130BDF80030ADF8103008
:10495000FCF7EAFD04460DF10B01BDF810204FF005
:10496000000362F30F03084621461A4600F05AFF7F
:104970009DF80B209DF80C304FEA032343EA020216
:104980009DF80D304FEA034343EA02029DF80E30D2
:104990004FEA036343EA02034FF0000119469DF812
:1049A0000F204FF0000362F307030846194601F099
:1049B000BFFB0346ADF81230FCF796FE03469BB2F0
:1049C0009AB2BDF8123018461146FBF71DFF034698
:1049D0000593059B002B04D14FF01600FCF7EEFE6B
:1049E00006E00598FCF702FD03461846FCF72AFE90
:1049F00006B010BD00B583B0FCF792FE0346184622
:104A0000FCF778FD03460193019B002B04D14FF086
:104A10001400FCF7D3FE0BE0019B1A785B784FEA99
:104A2000032343EA02039BB21BB21846FCF7B8FD0E
:104A300003B000BD00B585B0FCF756FE03469BB23F
:104A40008DF80730FCF71EFE03460293FCF768FE64
:104A500003461846FCF74EFD03460393039B002BC9
:104A600004D14FF01400FCF7A9FE17E0039B1A785D
:104A70005B784FEA032343EA02039BB21A46029B88
:104A80009A4207D9029A9DF80710039B1A440B46D5
:104A9000D37003E04FF00F00FCF790FE05B000BDAF
:104AA00010B5FFF7C7FF10BD30B585B0FCF71CFE91
:104AB00003469BB2ADF80630FCF7E4FD03460293D3
:104AC000FCF72EFE03461846FCF714FD034603933D
:104AD000039B002B04D14FF01400FCF76FFE2AE07B
:104AE000039B1A785B784FEA032343EA02039BB2E5
:104AF0001A46029B9A421AD9029C039D9DF8060011
:104B00004FEA44022A444FF000031946034641EAA3
:104B10000303D3709DF807004FEA44022A444FF084
:104B200000031946034641EA0303137103E04FF003
:104B30000F00FCF743FE05B030BDC04630B585B070
:104B4000FCF7A0FD03460193FCF79CFD034602938E
:104B5000FCF7E6FD03461846FCF7CCFC034603933E
:104B6000039B002B04D14FF01400FCF727FE42E01A
:104B7000039B1A785B784FEA032343EA02039BB254
:104B80001A46029B9A4232D9029C039D9DF804006A
:104B90004FEA84022A444FF000031946034641EAD3
:104BA0000303D3709DF805004FEA84022A444FF0B6
:104BB00000031946034641EA030313719DF80600FA
:104BC0004FEA84022A444FF000031946034641EAA3
:104BD000030353719DF807004FEA84022A444FF003
:104BE00000031946034641EA0303937103E04FF0C3
:104BF0000F00FCF7E3FD05B030BDC04630B585B011
:104C0000FCF78EFD0346ADF80630FCF73BFD03468E
:104C10000293FCF785FD03461846FCF76BFC034640
:104C20000393039B002B04D14FF01400FCF7C6FD47
:104C30002AE0039B1A785B784FEA032343EA0203D6
:104C40009BB21A46029B9A421AD9029C039D9DF878
:104C500006004FEA44022A444FF000031946034677
:104C600041EA030313719DF807004FEA44022A4406
:104C70004FF000031946034641EA0303537103E072
:104C80004FF00F00FCF79AFD05B030BD00B583B0C2
:104C9000FCF7F8FC03460093FCF742FD0346184678
:104CA000FCF728FC03460193019B002B04D14FF035
:104CB0001400FCF783FD1AE0019B1A785B784FEA39
:104CC000032343EA02039BB21A46009B9A420AD985
:104CD000009A019B1344DB785BB29BB21BB218466F
:104CE000FCF75EFC03E04FF00F00FCF767FD03B03C
:104CF00000BDC04610B5FFF7C9FF10BD00B583B0B9
:104D0000FCF7C0FC03460093FCF70AFD0346184677
:104D1000FCF7F0FB03460193019B002B04D14FF0FD
:104D20001400FCF74BFD27E0019B1A785B784FEAF3
:104D3000032343EA02039BB21A46009B9A4217D907
:104D4000009A01994FEA42030B44D8784FEA420394
:104D50000B441B794FEA032343EA00034FEA034362
:104D60004FEA23439BB21BB21846FCF719FC03E041
:104D70004FF00F00FCF722FD03B000BD00B583B07B
:104D8000FCF780FC03460093FCF7CAFC0346184678
:104D9000FCF7B0FB03460193019B002B04D14FF0BD
:104DA0001400FCF70BFD31E0019B1A785B784FEAA9
:104DB000032343EA02039BB21A46009B9A4221D97D
:104DC000009A01994FEA82030B44D8784FEA820394
:104DD0000B441B794FEA032343EA00004FEA8203A6
:104DE0000B445B794FEA034343EA00004FEA820336
:104DF0000B449B794FEA036343EA00031846FCF730
:104E0000F1FB03E04FF00F00FCF7D8FC03B000BD4E
:104E100000B583B0FCF736FC03460093FCF780FC3A
:104E200003461846FCF766FB03460193019B002BE3
:104E300004D14FF01400FCF7C1FC22E0019B1A786A
:104E40005B784FEA032343EA02039BB21A46009BB6
:104E50009A4212D9009A01994FEA42030B441879F9
:104E60004FEA42030B445B794FEA032343EA000312
:104E70009BB21846FCF7E6FB03E04FF00F00FCF78F
:104E80009DFC03B000BDC04610B582B0FEF766FCC5
:104E900003468DF80330FCF747FB03469DF80320DB
:104EA0001846114600F024F803460193019A92F83F
:104EB000281092F829304FEA032343EA010192F8BF
:104EC0002A304FEA034343EA010192F82B304FEABC
:104ED000036343EA01031C46FEF740FC03464FEA26
:104EE000830323441B681846FCF77CFB02B010BD0B
:104EF00086B003900291029B002B20D0039A92F877
:104F00002C1092F82D304FEA032343EA010192F866
:104F10002E304FEA034343EA010192F82F304FEA63
:104F2000036343EA01031A46029BC3F101034FEAFC
:104F30008303C3F1000313441B68019301E0039B47
:104F40000193019B0593059B184606B07047C04628
:104F500010B582B0FEF702FC03468DF80330FCF773
:104F6000E3FA03469DF8032018461146FFF7C0FFF9
:104F700003460193019A117F537F4FEA032343EACB
:104F80000101937F4FEA034343EA0101D37F4FEAD4
:104F9000036343EA01031C46FEF7E0FB03464FEAC6
:104FA000430323441B881846FCF74CFB02B010BD9A
:104FB00010B582B0FEF7D2FB03468DF80330FCF744
:104FC000B3FA03469DF8032018461146FFF790FFF9
:104FD00003460193019A92F8201092F821304FEA8B
:104FE000032343EA010192F822304FEA034343EAE4
:104FF000010192F823304FEA036343EA01031C46A0
:10500000FEF7ACFB034623441B785BB29BB21BB29A
:105010001846FCF7C5FA02B010BDC04610B5FFF740
:10502000C7FF10BD10B582B0FEF798FB03468DF8A0
:105030000330FCF779FA03469DF803201846114621
:10504000FFF756FF03460193019A92F8241092F855
:1050500025304FEA032343EA010192F826304FEA54
:10506000034343EA010192F827304FEA036343EA1E
:1050700001031C46FEF772FB03464FEA4303234439
:105080001B881BB21846FCF78BFA02B010BDC04655
:1050900010B582B0FEF762FB03468DF80330FCF7D3
:1050A00043FA03469DF8032018461146FFF720FFF8
:1050B00003460193019A92F8281092F829304FEA9A
:1050C000032343EA010192F82A304FEA034343EAFB
:1050D000010192F82B304FEA036343EA01031C46B7
:1050E000FEF73CFB03464FEA83031C44FCF7CAFA75
:1050F0000346236002B010BD10B582B0FEF72EFB50
:1051000003468DF80330FCF70FFA03469DF80320A1
:1051100018461146FFF7ECFE03460193019A117FF2
:10512000537F4FEA032343EA0101937F4FEA03438E
:1051300043EA0101D37F4FEA036343EA01031C46BC
:10514000FEF70CFB03464FEA43031C44FCF7E8FA66
:105150000346238002B010BD10B582B0FEF7FEFA00
:1051600003468DF80330FCF7DFF903469DF8032072
:1051700018461146FFF7BCFE03460193019A92F8C8
:10518000201092F821304FEA032343EA010192F8FC
:1051900022304FEA034343EA010192F823304FEAF9
:1051A000036343EA01031C46FEF7D8FA03461C4496
:1051B000FCF79AFA03469BB2DBB2237002B010BD33
:1051C00010B5FFF7C9FF10BD10B582B0FEF7C6FAE3
:1051D00003468DF80330FCF7A7F903469DF803203A
:1051E00018461146FFF784FE03460193019A92F890
:1051F000241092F825304FEA032343EA010192F884
:1052000026304FEA034343EA010192F827304FEA80
:10521000036343EA01031C46FEF7A0FA03464FEA84
:1052200043031C44FCF760FA03469BB29BB2238005
:1052300002B010BD10B582B0FCF772FA03461846F2
:10524000FCF758F903460093009B002B04D14FF064
:105250001400FCF7B3FA1EE0009805F09FFE034629
:10526000012B04D14FF02800FCF7A8FA13E0FEF759
:1052700075FA03464FEA03239CB2FEF76FFA034622
:105280002344ADF80630009ABDF8063013441B687D
:105290001846FCF7A7F902B010BDC04610B584B09F
:1052A000FCF73EFA03461846FCF724F9034601933F
:1052B000019B002B04D14FF01400FCF77FFA34E07F
:1052C000019805F06BFE0346012B04D14FF0280036
:1052D000FCF774FA29E0FEF741FA03464FEA03238C
:1052E0009CB2FEF73BFA03462344ADF80A30FBF7C5
:1052F000A7FD04460198FCF775FD034620461946B4
:1053000008F0ACFF03460093019A009B03F10103F0
:105310001B7813440393BDF80A304FEA4302039B02
:1053200013441B881846FCF78DF904B010BDC04625
:1053300010B582B0FCF7F4F903461846FCF7DAF82A
:1053400003460093009B002B04D14FF01400FCF7A0
:1053500035FA21E0009805F021FE0346012B04D127
:105360004FF02800FCF72AFA16E0FEF7F7F903469B
:105370004FEA03239CB2FEF7F1F903462344ADF84C
:105380000630009ABDF8063013441B785BB29BB21E
:105390001BB21846FCF704F902B010BD10B5FFF7B8
:1053A000C7FF10BD10B582B0FCF7BAF90346184626
:1053B000FCF7A0F803460093009B002B04D14FF0AC
:1053C0001400FCF7FBF91FE0009805F0E7FD034629
:1053D000012B04D14FF02800FCF7F0F914E0FEF7A0
:1053E000BDF903464FEA03239CB2FEF7B7F9034623
:1053F0002344ADF80630009ABDF8063013441B88EC
:105400001BB21846FCF7CCF802B010BD10B584B042
:10541000FCF738F903460193FCF782F90346184676
:10542000FCF768F803460293029B002B04D14FF06F
:105430001400FCF7C3F91CE0029805F0AFFD034629
:10544000012B04D14FF02800FCF7B8F911E0FEF76A
:1054500085F903464FEA03239CB2FEF77FF9034622
:105460002344ADF80E30029ABDF80E301A44019B69
:10547000136004B010BDC04610B586B0FCF750F9FB
:105480000346ADF80630FCF74BF903461846FCF727
:1054900031F803460393039B002B04D14FF0140013
:1054A000FCF78CF933E0039805F078FD0346012BF7
:1054B00004D14FF02800FCF781F928E0FEF74EF9FF
:1054C00003464FEA03239CB2FEF748F90346234400
:1054D000ADF81230FBF7B4FC04460398FCF782FCED
:1054E00003462046194608F0B9FE03460293039A84
:1054F000029B03F101031B7813440593BDF812309E
:105500004FEA4302059B1A44BDF80630138006B0EB
:1055100010BDC04610B584B0FCF7E6F803469BB258
:105520008DF80730FCF7FCF803461846FBF7E2FF5E
:1055300003460293029B002B04D14FF01400FCF7AA
:105540003DF91DE0029805F029FD0346012B04D129
:105550004FF02800FCF732F912E0FEF7FFF803469F
:105560004FEA03239CB2FEF7F9F803462344ADF853
:105570000E30029ABDF80E301A449DF807301370B1
:1055800004B010BD10B5FFF7C5FF10BD10B584B055
:10559000FCF7AAF803469BB2ADF80630FCF7C0F85A
:1055A00003461846FBF7A6FF03460293029B002B17
:1055B00004D14FF01400FCF701F91DE0029805F04A
:1055C000EDFC0346012B04D14FF02800FCF7F6F860
:1055D00012E0FEF7C3F803464FEA03239CB2FEF73E
:1055E000BDF803462344ADF80E30029ABDF80E30E4
:1055F0001A44BDF80630138004B010BD00B585B064
:10560000FCF740F803460093FDF7BAFC03469BB253
:10561000ADF80630FDF7EEFC03460293FDF7EAFC19
:1056200003460393009A029B9A4210D3009A039B6D
:105630009A420CD8009A029BC3EB02034FEA430341
:10564000184600F00FF803469BB2ADF80630BDF8DF
:105650000630A3F10B039BB21BB21846FEF7D4F839
:1056600005B000BD82B0019041F20C03C2F200030C
:105670001B881A4641F21003C2F200031B681A4449
:10568000019B13441B784FEA032399B241F20C03A8
:10569000C2F200031B881A4641F21003C2F2000353
:1056A0001B681A44019B134403F101031B780A464B
:1056B00042EA03039BB21BB2184602B07047C046D1
:1056C00000B585B0FBF7DEFF03460293FDF758FCFB
:1056D00003469BB2ADF80C30FDF752FC03469BB27B
:1056E000ADF80E304FF00003019321E0019B4FEA2B
:1056F00043024FEA8203C2EB0303184600F028F886
:105700000246029B9A420FD1019B4FEA43024FEAA5
:105710008203C2EB030303F104031846FFF7A2FF61
:1057200003469BB2ADF80C30019B03F101030193DA
:10573000BDF80E20019B9A42D8DCBDF80C30A3F1D5
:1057400005039BB21BB21846FEF75EF805B000BD1C
:1057500082B0019041F20C03C2F200031B881A468A
:1057600041F21003C2F200031B681A44019B134468
:105770001B784FEA036141F20C03C2F200031B885D
:105780001A4641F21003C2F200031B681A44019B3F
:10579000134403F101031B784FEA034341EA030179
:1057A00041F20C03C2F200031B881A4641F21003B7
:1057B000C2F200031B681A44019B134403F1020365
:1057C0001B784FEA032341EA030141F20C03C2F2C2
:1057D00000031B881A4641F21003C2F200031B6843
:1057E0001A44019B134403F103031B7841EA0303AA
:1057F000184602B07047C04600B583B0FBF790FF73
:1058000003461846FBF776FE0346019341F20C036C
:10581000C2F200031B8801981946FCF701F803B097
:1058200000BDC04630B585B005460191ADF80020F9
:105830009DF800300198194600F03EF800F0FF0195
:105840004FF000031A460B4642EA03038DF80B3073
:105850004FEA102303F0FF014FF000031A460B46F6
:1058600042EA03038DF80C304FEA104303F0FF01C6
:105870004FF000031A460B4642EA03038DF80D3041
:105880004FEA10614FF000031A460B4642EA030349
:105890008DF80E309DF801308DF80F302B460DF14C
:1058A0000B024FF0050418461146224611F06AFA21
:1058B000284605B030BDC04686B003900291029BD9
:1058C000002B20D0039A92F82C1092F82D304FEA3A
:1058D000032343EA010192F82E304FEA034343EADF
:1058E000010192F82F304FEA036343EA01031A469D
:1058F000029BC3F101034FEA8303C3F10003134486
:105900001B68019301E0039B0193019B0593059B99
:10591000184606B07047C04600B587B002AB83E8B2
:1059200003000192029B0198194601F019FD0346FC
:10593000DBB28DF814309DF80C308DF81530BDF8C1
:105940001430ADF816304FF000039DF8162062F3C6
:1059500007039DF8172062F30F23184607B000BD18
:1059600010B487B004AC84E8030002A981E80C00FD
:10597000049A029B9A4209D19DF814209DF80C309C
:105980009A4203D14FF00102019202E04FF000036E
:105990000193019AD3B2184607B010BC7047C046B5
:1059A00010B58AB006AC84E8030004A981E80C00B5
:1059B0004FF0000006989DF81C304FF0000263F392
:1059C00007024FF00004049C9DF814104FF00003F0
:1059D00061F307031146224600F09EF80346002BB0
:1059E00003D04FF00103019392E00DF123004FF03B
:1059F000000106999DF81C204FF0000362F3070395
:105A00001A4600F00FF95BE09DF823209DF8243042
:105A10004FEA032343EA02029DF825304FEA03438D
:105A200043EA02029DF826304FEA036343EA020389
:105A30004FF0000018469DF827304FF0000263F346
:105A400007024FF00004049C9DF814104FF000036F
:105A500061F307031146224600F05EF80346002B6F
:105A600003D04FF00103019352E002A89DF82320D8
:105A70009DF824304FEA032343EA02029DF82530C3
:105A80004FEA034343EA02029DF826304FEA0363DC
:105A900043EA02034FF0000119469DF827204FF01A
:105AA000000362F307031A4600F0BCF80DF123036C
:105AB00002AA4FF0050418461146224611F062F979
:105AC0009DF823209DF824304FEA032343EA020285
:105AD0009DF825304FEA034343EA02029DF8263041
