:020000040020DA
:100000000010002091022000ED0220008D0220004F
:100010008D0220008D0220008D02200000000000D3
:100020000000000000000000000000008D02200021
:100030008D022000000000008D02200035182000F5
:10004000411D2000191D2000F11C2000C91C2000AA
:1000500000000000E11920008D0220008D02200028
:100060008D022000000000000000000000000000E1
:1000700000000000000000008D02200000000000D1
:1000800000000000000000008D0220008D02200012
:100090008D0220008D0220008D0220008D022000A4
:1000A0008D0220008D0220008D0220008D02200094
:1000B0008D0220008D0220008D0220008D02200084
:1000C0008D0220008D0220008D0220008D02200074
:1000D0008D02200000000000000000000000000071
:1000E0000000000000000000000000000000000010
:1000F0000000000000000000212520003125200024
:1001000000000000000000000000000000000000EF
:1001100000000000000000000000000000000000DF
:1001200000000000000000000000000000000000CF
:1001300000000000000000000000000000000000BF
:1001400000000000000000000000000000000000AF
:10015000000000000000000000000000000000009F
:10016000000000000000000000000000000000008F
:10017000000000000000000000000000000000007F
:10018000000000000000000000000000000000006F
:10019000000000000000000000000000000000005F
:1001A000000000000000000000000000000000004F
:1001B000000000000000000000000000000000003F
:1001C000000000000000000000000000000000002F
:1001D000000000000000000000000000000000001F
:1001E000000000000000000000000000000000000F
:1001F00000000000000000000000000000000000FF
:1002000000000000000000000000000000000000EE
:1002100000000000000000000000000000000000DE
:1002200000000000000000000000000000000000CE
:1002300000000000000000000000000000000000BE
:1002400000000000000000000000000000000000AE
:10025000000000000000000000000000000000009E
:10026000000000000000000000000000000000008E
:100270008D02200005212000C92020008D022000D1
:100280008D022000C91820008D022000FEE7C04624
:1002900010B540F2B44040F2000E42F2B403C2F294
:1002A000000EC2F20000FF22C4F20D0386451A6060
:1002B0000CD246F22C51FF3AC0F220018B584EF876
:1002C000023004320EEB02038342F7D3054806499D
:1002D0004FF000028842B8BF40F8042BFADB00F070
:1002E00067FBFEE7000800201C24002010B5FFF784
:1002F000CFFFFEE710B501F0C9FA42F2DC34C2F2DA
:100300000004206001F042FA41F21C03C2F2000333
:100310000246186045F668602168C0F2200002F0CD
:100320004FFA10BD2DE9F04F038883B0872B834629
:1003300000F0D4800DD9932B00F0FE80A42B00F0A8
:10034000C3804FF00003ABF80030032003B0BDE8DA
:10035000F08F002B00F0AA80662BF2D145F68C605E
:10036000C0F2200002F0EEF945F6B860C0F22000BD
:1003700002F0E8F945F6E460C0F2200041F2000422
:1003800002F0E0F9C2F20004012341F2100641F24A
:10039000240941F2140844F240272370C2F20006F7
:1003A000C2F20009C2F2000842F2107AC0F20F074E
:1003B00001F06CFA237830600AFB03F34FF6F0701B
:1003C000C0F2000003EA000001F0ECF901F05EFA6F
:1003D00033682178C21A07FB02F3C9F8000045F61A
:1003E0001870DB0BC0F220000AFB01F1C8F80020F6
:1003F00002F0E6F9237841F200050133DBB2062B67
:10040000C2F200052370D3D945F68C60C0F22000FB
:1004100002F098F945F65070C0F220004FF4004108
:1004200002F0CEF900232B7041F228004FF48071C6
:10043000C2F2000000F0F4F945F67870C0F2200036
:1004400002F080F901F0A2F941F21C05C2F20005A8
:10045000286001F01BFA42F2DC33C2F2000342F2E0
:10046000D83401461860C2F2000400F5004345F696
:10047000907023602A68C0F2200002F0A1F90023E6
:10048000216841F20400009340F2F523C2F200001B
:100490000122C0F2200300F0DDF9002840F0B9800D
:1004A0004FF08703ABF8003001204FE741F22800FE
:1004B000C2F200004FF4807100F0B2F94FF0660311
:1004C000ABF80030012041E741F22800C2F2000001
:1004D00000F0A6F8002874D1012037E741F2280087
:1004E000C2F2000000F09CF80028F5D041F20004B0
:1004F000C2F2000423780133DBB2042B237093D9BA
:1005000045F68C60C0F2200002F01CF945F6C4707C
:10051000C0F22000802102F053F90023237041F241
:100520002800C2F20000802100F07AF94FF0930316
:10053000ABF80030012009E741F22800C2F20000C8
:1005400000F06EF80028C7D041F22800C2F2000087
:1005500000F05EF901F01AF941F21803C2F200034B
:100560001860014645F6FC70C0F2200041F200041C
:1005700002F026F9C2F20004012000F09BF9237872
:100580000133DBB2092B2370C9D945F68C60C0F268
:10059000200002F0D7F846F20800C0F2200002F076
:1005A000D1F80023237041F22800C2F200004FF47A
:1005B000207100F035F94FF0A403ABF800300120B2
:1005C000C4E641F22800C2F2000000F021F901F077
:1005D000E3F841F22003C2F200031860014646F23C
:1005E0002400C0F2200002F0EBF8042000F062F9D1
:1005F00041F20002C2F2000213780133DBB2092B90
:100600001370D0D946F23400C0F2200002F09AF8FC
:1006100097E645F6B470C0F2200002F093F83FE789
:10062000C068D0F1010038BF0020704741F23803A4
:10063000C2F200031868003818BF01207047C04696
:1006400010B541F23804C2F200042268DAB101F0B8
:100650009DF8236819685A6852189968C0EB020E11
:1006600049B14B680A6889689B181B1A9E4528BFC8
:100670009E460029F5D141F23C03C2F200030EEB85
:1006800000021A6010BD41F23C03C2F200031A607E
:10069000F8E7C04610B541F23801C2F200010A681D
:1006A000044690420FD02AB19368A34206D01A465E
:1006B000002AF9D10023A360E36010BDA368936012
:1006C000FFF7BEFFF6E783680B60FFF7B9FFF1E7BE
:1006D00040F2104010B5C2F2000003F007FF10BD59
:1006E0002DE9F0410646008848B941F23803C2F2CC
:1006F000000318604FF059033380012005E05928AA
:1007000005D04FF0000333800320BDE8F081872936
:1007100024D08229EED141F23807C2F200074FF00F
:1007200000083C68002CE5D0002504E0A3682546BD
:10073000002BDFD01C46204604F014F80028F5D02A
:10074000E0688821224603F06DFE002825D040F2A3
:100750001040C2F2000003F0C9FEE7E741F238079B
:10076000C2F2000738680028C4D0C168914203D0A3
:100770000DE0C3688B420ED180680028F9D1386043
:10078000B8E7CB6893420ABF8B68084683608168EC
:100790000029F6D1AEE73860F9E7E06035B1A3682B
:1007A000AB60C4F80880FFF74BFFBAE7A3683B6073
:1007B000F7E7C04610B5044640F21040C2F2000010
:1007C00003F094FEE3689BB141F23801C2F20001EC
:1007D0000B6813B910E09B6873B19C42FBD141F6E2
:1007E000FC13C2F200031A68E260FFF729FF0EE073
:1007F00041F23801C2F2000141F6FC13C2F20003DB
:100800001A68E2600B68A3600C60FFF719FF10BD67
:1008100010B5044603F0A0FF2046FFF7CBFF10BD44
:1008200010B5044603F0ACFF2046FFF7C3FF10BD30
:1008300010B541F24004C2F20004206848B1002320
:100840002360426881689047206810B1006801F019
:100850004DF810BD70B541F24002C2F200021C46D4
:100860001368049D2BB14460856001601060002016
:1008700070BD4460856001601060084601F036F884
:10088000F5E7C04610B500F0F9FF10BD10B541F214
:100890004502C2F20002137880EA030141F24403E8
:1008A000C2F200031878117081EA000000F048F8E5
:1008B00010BDC04610B5FFF7E9FF10BD10B541F2FD
:1008C0004402C2F200021378C143194041F24503C9
:1008D000C2F200031878117081EA000000F030F8CD
:1008E00010BDC04610B541F24402C2F200021378B6
:1008F00040EA030141F24503C2F200031878117087
:1009000081EA000000F01CF810BDC04610B500F0F0
:100910000DF841F2450341F244020021C2F2000306
:10092000C2F200021970117010BDC0464BF20042B5
:10093000C4F20D02136843F00F0313607047C04602
:100940004BF23C03C4F20D0318607047F0B500246D
:1009500083B00646254627463046FFF7C3FF01977A
:10096000019B9C4206DD00BF019B01330193019A6C
:100970009442F8DC3046FFF7A1FF0197019BC4F5D4
:10098000C871994206DD00BF019B01330193019AB2
:100990009142F8DC0135B5F5487F06D0B5F5C87F42
:1009A000D4BF2C46C5F54874D6E703B0F0BDC046A9
:1009B00010B501F0EDF801F049F900F0A9FE01F0E1
:1009C000EDFDFFF75FFF01F075F901F0CDF9FFF7DD
:1009D0009DFF0220FFF7BAFF03F05CFC01F0BEF8B8
:1009E00001F04AF844F24160C0F2200000F0E4FF58
:1009F00003F012FE0420FFF7A9FF46F25C00C0F2EC
:100A0000200001F09FFE46F26800C0F2200001F0D5
:100A100099FE46F27C00C0F2200001F0D1FE46F2C1
:100A20002833C0F22003186801F08CFE46F28400DF
:100A3000C0F2200001F0C4FE46F29C33C0F2200355
:100A4000186801F07FFE46F28C00C0F2200001F031
:100A5000B7FE46F26C33C0F22003186801F072FE54
:100A6000002003F0C9FF01F06BFD00F0BDFA00F0BB
:100A7000A9FA00F0B1F800F07DF8441CE4B2204679
:100A800000F090F846F294002146C0F2200001F0F8
:100A900097FE42F2E03440F21040C2F20000002122
:100AA000C2F2000403F0F6FC03F078FF02212046B6
:100AB00001F076FE46F2B400C0F2200001F080FEA4
:100AC00046F2D4002178C0F2200001F079FE46F20F
:100AD000DC006178C0F2200001F072FE04F00CF836
:100AE00045F2494001F0AEF903F06EFF45F6606053
:100AF000C0F2200003F008FD01F038F80820FFF7ED
:100B000025FF01F03BF803F0E3FB10F0FF0FF8D1F5
:100B100001F05AFDF5E7C04670B504460D4600F0F9
:100B2000FFF800BF44F0100000F0B4F8284600F0D1
:100B3000B1F800BF00F0EAF8AA2000F09DF870BDFF
:100B400010B501200021FFF7E7FF10BD10B50446E6
:100B500000F0E6F800BF44F0900000F09BF800F0D1
:100B6000ABF8044600BF00F0D1F8AA2000F084F8EA
:100B7000204610BD10B50320FFF7E8FF0309DBB2E4
:100B80005A00DB00D21800F00F001218D0B210BDCE
:100B900010B50120FFF7DAFF00F0D3010120FFF7C5
:100BA000BBFF10BD10B5022104460120FFF7B4FFC2
:100BB0004CF6CD43CCF6CC43A3FB0423DB08190150
:100BC0005A00DB00D218A41A09190920C9B2FFF78C
:100BD000A3FF00F02DF910BD46F2E40010B5C0F2FD
:100BE000200001F0AFFD00F0A5F800F019F90E208B
:100BF000FFF7ACFF712834D000205821FFF78CFF9D
:100C00000E207121FFF788FF04201421FFF784FFD5
:100C100003202421FFF780FF02200121FFF77CFF42
:100C200007201121FFF778FF05202721FFF774FF28
:100C300006200021FFF770FF11210820FFF76CFF4D
:100C40000320FFF783FF0309DBB25A00DB0000F04B
:100C50000F01D21846F2F000C0F22000511801F046
:100C6000AFFDFFF795FF00F0E3F80120802104229B
:100C700000F072F910BDC046014650B100220023B9
:100C800000BF0133DBB2FF2BFAD1531CDAB2914221
:100C9000F5D87047014648F2000010B5C4F20000D4
:100CA00000F0DCF948F20000C4F2000000F0F2F9B4
:100CB0000028F7D110BDC04610B582B002AC0023A9
:100CC00044F8043D48F200002146C4F2000000F060
:100CD000D7F901460028F5D1019048F20000C4F28E
:100CE000000000F0BBF948F20000C4F2000000F080
:100CF000D1F90028F7D148F20000C4F200002146E3
:100D000000F0B4F99DF8040002B010BD4AF20000F2
:100D100010B5C4F20D002021002200F0E7FB10BD49
:100D200020214AF2000010B5C4F20D000A4600F07E
:100D3000DDFB10BD70B584B0002504AE46F8045D3F
:100D400000F008FC00F040FC4FF4807000F0A8FCBC
:100D500048F20000C4F2000000F07AF948F2000006
:100D6000C4F20000012100F09BF94AF200000422C5
:100D7000C4F20D00082100F0FBF94AF20000C4F2B1
:100D80000D00202100F0CEFB4AF20000C4F20D005D
:100D900020212A4600F0AAFB4AF20000C4F20D000E
:100DA0000421032200F0E4F94AF2000044F2101298
:100DB000C4F20D02C4F20D00022100F02DFA4AF235
:100DC00000000E21C4F20D0000F094FB00F008FCBE
:100DD000044600F0BFFB44F6D353C1F26203A3FB09
:100DE000002080090090082348F200000193C4F21B
:100DF000000021462A462B4600F0FAF848F200008F
:100E0000C4F2000000F01EF948F20000C4F2000035
:100E1000314600F035F90028F6D104B070BDC04667
:100E200041F24602C2F20002137801331370704798
:100E300041F24602C2F200021378013B1370704780
:100E400010B50388044623B94FF0640323800120C2
:100E500010BD642B04D04FF0000303800320F7E79C
:100E600082290BD141F2480340F23042C2F2000322
:100E7000C2F20002196810788847E5E70120E7E729
:100E800046F2141010B5C0F2200001F05BFC4BF2EA
:100E900000000121C4F20D0000F01CFB10F0080F4F
:100EA000044613D110F0100F1DD110F0200F27D1E0
:100EB00010F0400F42D110F0800F2ED14BF2000005
:100EC000C4F20D00E1B200F00DFB10BD40F2304362
:100ED000C2F20003002240F220401A70C2F2000069
:100EE00003F004FBEAE740F23043C2F200030122C0
:100EF00040F220401A70C2F2000003F0F7FADDE77A
:100F000040F23043C2F20003022240F220401A7045
:100F1000C2F2000003F0EAFAD0E740F23043C2F236
:100F20000003042246F220101A70C0F2200001F0E3
:100F300009FCFFF72DFEFFF703FEBFE740F2304349
:100F4000C2F20003032240F220401A70C2F20000F5
:100F500003F0CCFAB2E7C04670B50D4640F68161A9
:100F6000C0F2200106461220144600F09DF800F061
:100F7000F1FA00F029FBEDB24BF200002946C4F271
:100F80000D0000F0DBFA22464BF200004BF20004A9
:100F90002946C4F20D04C4F20D0000F0D9F9002E68
:100FA0000CBF042200222046294600F04BFA2046BE
:100FB000294600F089FA00F0D3F8122000F094F8E6
:100FC00070BDC04610B54CF20004C4F20D042046BA
:100FD000102100F0A7FA20461021002200F086FA26
:100FE00004F016F810BDC04610B504F011F810BD9D
:100FF000022B10B414461CD0FBB94360019B0022A5
:10100000B1FBF3F10232B1FBF2F303F1FF3CBCF1AF
:10101000FF0FF7D80261A301029A03F0FF0304F067
:1010200030010B43013A134343EA0C23036010BC25
:101030007047063343F00403DFE7002343F0040363
:10104000DBE7C046436843F0020343607047C04695
:10105000436823F0020343607047C04600F10C026E
:10106000136813F0020FFBD08160704700F10C028F
:10107000136813F0040FFBD083680B607047C04601
:10108000C368024613F004001EBF93680B60012082
:101090007047C046C068000900F001007047C046B4
:1010A000C0F8C81F7047C04630B44EF60852CEF2A2
:1010B00000028446136840F20000C2F2000083423E
:1010C0000C4605460CD01168002253588350043258
:1010D000B2F5237FF9D14EF60853CEF200031D601E
:1010E00040F82C4030BC7047042815D005281CD08F
:1010F000062823D00F282AD00DD9A0F1100146F2DE
:101100004013C0F220034A0953F8220001F01F01E6
:1011100001238B40036070474EF62452CEF200024A
:10112000136843F480331360F5E74EF62452CEF291
:101130000002136843F400331360ECE74EF62452C8
:10114000CEF20002136843F480231360E3E74EF20B
:101150001002CEF20002136843F002031360DAE7D4
:1011600010B500F0B1FA003818BF012010BDC0461C
:101170002DE9F00F46F2941384B08A464FF0000C2C
:101180004AF2000146F2D41B4BF2000846F2142941
:101190004CF2000646F2741749F20004C0F2200334
:1011A0000392C4F20D016246C0F2200BC4F20D0896
:1011B000C0F22009C4F20D06C0F22007C4F20D04EB
:1011C00001930DE0A04224D044F20003C4F20D03C9
:1011D000039D1D600CF1010C0432BCF1080F14D00A
:1011E0004AFA0CF313F0010FF4D0884208BF5BF801
:1011F0000230EDD0E6D9404508BF59F80230E7D0BB
:10120000B04208BFBB58DFD1E2E704B0BDE8F00F41
:101210007047019DAB58DBE74AF20003C4F20D03AF
:10122000984225D00ED94BF20003C4F20D03984228
:1012300026D04CF20003C4F20D03984210D00021D6
:101240001160704749F20003C4F20D039842F6D1D1
:10125000022923D0042927D008292DD10539EFE709
:10126000012919D002291DD0042929D11631E7E717
:1012700001290FD0022913D0042925D10631DFE737
:10128000012905D0022911D0042911D10E31D7E747
:101290001021D5E70821D3E71821D1E70121CFE7B5
:1012A0000731CDE71731CBE70239C9E70F31C7E77F
:1012B00008290DD11321C3E710292BD10C39BFE721
:1012C00008292BD11B21BBE7082905D10B21B7E742
:1012D000102905D10431B3E710290ED10439AFE745
:1012E000202901D10B39ABE7402901D12A39A7E7E1
:1012F00080290CBF17210021A2E7202901D1133931
:101300009EE7402901D132399AE780290CBF0F218D
:10131000002195E7202905D11B3991E710290AD131
:101320000C318DE7402901D13A3989E780290CBF7A
:101330000721002184E7202901D1033980E74029D2
:1013400001D122397CE780290CBF1F21002177E7DA
:101350002DE9F00F46F2B41384B08A464FF0000C2A
:101360004AF2000146F2541B4BF2000846F2F4190F
:101370004CF2000646F2342749F20004C0F2200382
:101380000392C4F20D016246C0F2200BC4F20D08B4
:10139000C0F22009C4F20D06C0F22007C4F20D0409
:1013A00001930DE0A04224D044F28003C4F20D0367
:1013B000039D1D600CF1010C0432BCF1080F14D028
:1013C0004AFA0CF313F0010FF4D0884208BF5BF81F
:1013D0000230EDD0E6D9404508BF59F80230E7D0D9
:1013E000B04208BFBB58DFD1E2E704B0BDE8F00F60
:1013F0007047019DAB58DBE712F0010F10B4944623
:1014000019D0D0F8003400F580640B431CF0020FB3
:1014100023601EBFD0F8203400F5846443EA010045
:1014200006D1D0F82024CB4300F5846403EA0200FF
:10143000206010BC7047D0F80024CB4300F58064D6
:101440001340E3E712F0010F10B494460C461DD090
:10145000D0F8083400F5816123431CF0020F0B60C3
:101460001ED0D0F8043400F58061043123431CF011
:10147000040F0B601FD1D0F80C2400F58061E3430A
:101480000C3103EA0200086010BC7047D0F8082451
:10149000E343134000F581611CF0020F0B60E0D1C3
:1014A000D0F80424E34300F58061043113401CF0BC
:1014B000040F0B60DFD0D0F80C3400F580610C31E4
:1014C00043EA0400DFE7C046D0F810340B43C0F80D
:1014D0001034704711B9D0F814047047D0F81804CC
:1014E000FBE7C046C0F81C147047C04640F82120F6
:1014F0007047C04670B5022204460D46FFF77CFFD8
:10150000204629460022FFF723FF70BD70B5022256
:1015100004460D46FFF770FF204629460022FFF7DC
:1015200017FF70BD70B5012204460D46FFF764FF3A
:10153000204629460022FFF70BFF70BD70B5002240
:1015400004460D46FFF758FF204629460022FFF7C4
:10155000FFFE70BD42F20402C4F20D02136803F0F4
:101560000703072B05D8DFE803F0060B10151A1F39
:1015700024290020704744F60000C0F2E810F9E783
:1015800042F20040C0F2F400F4E741F20020C0F261
:101590007A00EFE740F60010C0F23D00EAE748F2BB
:1015A0008040C0F21E00E5E744F24020C0F20F0088
:1015B000E0E74AF22010C0F20700DBE74DF29000AE
:1015C000C0F20300D6E7C04642F20002C4F20D02A8
:1015D000136823F4E06343EA002313607047C046B6
:1015E00042F20402C4F20D02136803F4E0631B0A22
:1015F000072B05D8DFE803F0060B10151A1F242966
:101600000020704744F60000C0F2E810F9E742F20B
:101610000040C0F2F400F4E741F20020C0F27A008A
:10162000EFE740F60010C0F23D00EAE748F28040E4
:10163000C0F21E00E5E744F24020C0F20F00E0E7F0
:101640004AF22010C0F20700DBE74DF29000C0F232
:101650000300D6E7030A46F25422C0F2200203F048
:101660000F0310B400F00F0052F82340012313FAC7
:1016700000F0216883B00143013B21600193019A8E
:101680000F2A05D8019B01330193019A0F2AF9D93A
:101690002268C3431340236003B010BC7047C046A8
:1016A000030A46F2682203F00F03C0F2200210B4CE
:1016B00000F00F0052F823400123834021681943B2
:1016C000216010BC7047C046EFF3108062B67047CF
:1016D00010B440F22002C4F20202136841F2002466
:1016E00043F01003136048F28043C0F21E03C0F2BF
:1016F0007A04002908BF1C4601380019B0FBF4F039
:1017000040F20C030138C4F20203186010BC7047A9
:1017100010B441F25003C2F2000300241C604EF2E8
:1017200014024EF64703CEF20002C0F201034EF25D
:1017300010001360CEF20000036842F2080143F08B
:10174000050303600268C4F20D0142F00202026068
:101750000B6840F20C0243F001030B60C4F2030279
:1017600040F200031460C4F20303042140F20402B7
:101770001960C4F20302033940F238031160C4F265
:1017800003030F221A6010BC7047C04641F2500399
:10179000C2F200031868704741F24C03C2F2000322
:1017A0001868704740F22803C4F2030340F20C02A9
:1017B0001860C4F20302136843F001031360136856
:1017C00013F0010FFBD1704710B44EF21002CEF2AD
:1017D0000002136841F24C0423F001031360C2F2CB
:1017E0000004236841F2500203EBD0132360C2F2DD
:1017F0000002136840F23141C3181360C2F20001C5
:101800000B781B1ADBB20B700A7812B10B78802BA5
:1018100006D92368013323600A7882F080020A70B7
:101820004EF21002CEF20002136843F0010313607F
:1018300010BC704710B541F25002C2F200021368AA
:1018400001331360FEF7F2FEA0B940F23140C2F25C
:1018500000000378013BDBB2037002784AB941F221
:101860004C03C2F200031A686FF07F0101321A6064
:10187000017010BDFEF72CFFE7E7C0467047C04679
:1018800041F25403C2F200031868704710B445F2E5
:101890004003C4F20D031C6845F2440245F24803BC
:1018A000C4F20D02C4F20D031168186845F24C022F
:1018B000C4F20D020004136840EA0120204340EA0C
:1018C000036010BC7047C04641F25403C2F20003EB
:1018D000002210B591201A6000F0A2F9912000F0CA
:1018E00091F900F003FFFEF7A3FF10BD45F250028F
:1018F00070B5C4F20D020646136813F0010FFBD059
:1019000000F0A0F945F24003C4F20D031D6845F252
:10191000440245F24803C4F20D02C4F20D031468F8
:10192000196845F24C02C4F20D020904106841EA3C
:101930000421294341EA0062B31A062BD8BFD61D01
:1019400045F24C03310EC4F20D031960320C45F21E
:10195000480302F0FF02C4F20D031A60310A45F297
:10196000440301F0FF01C4F20D03196045F2400386
:1019700006F0FF02C4F20D031A6000F05FF941F2B5
:101980005403C2F200031E60912000F02DF970BDD7
:1019900042F22803C4F20D031A6812F0010F08D0B6
:1019A0004CF21803C4F200031A68D20902F00100D5
:1019B00070470120FCE7C04641F25803C2F2000321
:1019C000186070474CF21802C4F20002136813F05A
:1019D000200FFBD14CF20003C4F2000318607047E3
:1019E00070B54CF24003C4F2000319684CF2440293
:1019F00089B211F05004C4F200024FF6BF731EBF4B
:101A00004CF2180641F258054CF2000413601EBF58
:101A1000C4F20006C2F20005C4F200041CD111F4A5
:101A2000D06F17D04CF23000C4F200004FF4407277
:101A30004CF204030260C4F20003FF214CF22C02BA
:101A40001960C4F20002116814601160036843F069
:101A50000103036070BD2368336813F0100FF9D1E0
:101A60002B68002BF7D02068C0B29847336813F07A
:101A7000100FF5D0EEE7C04641F6911010B5C0F258
:101A8000200000F079FD42F22802C4F20D02136832
:101A900042F22C0143F001031360C4F20D010B6804
:101AA00042F2300043F001030B60C4F20D00036802
:101AB0004CF6C87243F00103036044F200130024A3
:101AC000C4F20D03C4F20002146020461C60012120
:101AD000224600F067F920460121082200F058F95B
:101AE00049F22041C4F20D010B684CF2380043F07A
:101AF00002030B600A68C4F2000042F001020A60AF
:101B00005022026003684CF2340243F4D063036055
:101B1000C4F2000202234CF230001360C4F2000051
:101B20004FF440724CF2240302600821C4F2000317
:101B30004CF228021960C4F200022C234CF22C0152
:101B40001360C4F2000170220A60036843F00103CD
:101B50000360052000F048F810BDC04645F20003C0
:101B6000C4F20D0300221A607047C04645F200031C
:101B7000C4F20D0308221A607047C04645F2000304
:101B8000C4F20D03A02250211A6019607047C046AC
:101B900041F268034EF20011C2F20003CEF20001DE
:101BA000196041F25C024EF28011C2F20002CEF2E4
:101BB0000001116041F260034EF20021C2F2000305
:101BC000CEF20001196041F264024EF28021C2F2AD
:101BD0000002CEF200014EF608531160CEF200036F
:101BE0004FF400121A60704741F26803C2F200031A
:101BF00041091A6800F01F000123834042F8213098
:101C00007047C04641F25C03C2F2000341091A6802
:101C100000F01F000123834042F821307047C04686
:101C200041F26403C2F2000341091A6800F01F0088
:101C30000123834042F821307047C046EFF3108003
:101C400062B67047EFF3108072B6704742F200023E
:101C500040F20113C4F20D02C0F2021342F2040179
:101C60001360C4F20D010A6840F20003C0F20113D0
:101C700002EA0303B3F1807FF5D1704741F26C03B0
:101C8000C2F200034A012DE9F04105460F469E18B5
:101C9000002455FA04F313F0010FE1B204D056F812
:101CA00024300BB1384698470134082CF1D1BDE8F7
:101CB000F081C04641F26C0010B500218022C2F2D2
:101CC000000004F089F810BD10B500F00FFD4CF2D3
:101CD0001843C4F20D0318680321C0B2FFF7CEFF0A
:101CE0004CF21C43C4F20D03FF221A6010BDC04623
:101CF00010B500F0FBFC4BF21843C4F20D0318685A
:101D00000221C0B2FFF7BAFF4BF21C43C4F20D032D
:101D1000FF221A6010BDC04610B500F0E7FC4AF281
:101D20001843C4F20D0318680121C0B2FFF7A6FFE3
:101D30004AF21C43C4F20D03FF221A6010BDC046D4
:101D400010B500F0D3FC49F21843C4F20D03186833
:101D50000021C0B2FFF792FF49F21C43C4F20D0309
:101D6000FF221A6010BDC04641F2F00344F2800128
:101D7000C2F20003C4F20D01196041F2EC0244F218
:101D80000003C2F20002C4F20D0313607047C046A4
:101D900041F2F003C000C2F200030918186840F8CD
:101DA0002120704741F2EC03C000C2F20003091881
:101DB000186840F821207047A0F10B03DBB20F2B0D
:101DC00098BF48F24C6210B4844698BFC4F208022F
:101DD00035D8136813F0020FFBD148F63801ED2314
:101DE000C4F2080148F22C620B60C4F208020B60D6
:101DF00013680BBB41F2F404C2F2000420784FEAEE
:101E00008C0200F07F00624448F23C632C3AC4F23A
:101E1000080348F638016FEA40601A60C4F208010E
:101E2000ED226FEA5060E3230A600A600B602070C5
:101E3000604640B210BC7047EF230B60DAE7FF202A
:101E4000F7E7C04648F2C85300F0FF02C4F20803A7
:101E50001A6048F2CC53000AC4F2080342F2E0329E
:101E60001860C2F20002517848F2D053C4F208035D
:101E70001960107848F2D453C4F208031860704710
:101E800010B448F24863C4F208031A6812F03F0F16
:101E90001CBF41F2F400C2F2000019D141F2F4007B
:101EA000C2F20000037843F0100C1CF0800F80F8A1
:101EB00000C00DD148F63802C4F20802ED231360C9
:101EC00013606FEA4C63E3216FEA536311600370A0
:101ED00048F26462C4F20802136813F0010FFBD0E9
:101EE00090F800C048F24C63C4F208031CF0100FD5
:101EF0001C6814D01A46136813F0020FFBD148F681
:101F00003801ED23C4F2080148F22C620B60C4F2E0
:101F100008020B6013683BB90CF06F0303702009D3
:101F200000F0010010BC7047EF230B60F4E7C046DF
:101F300041F2F400C2F2000090F800C01CF0800FE3
:101F40000DD148F63802C4F20802ED231360136085
:101F50006FEA4C63E3216FEA536311600370012061
:101F60007047C04648F24C62C4F20802136813F08E
:101F7000020FFBD148F63801ED23C4F2080148F204
:101F80002C620B60C4F208020B6013680BB1EF23E4
:101F90000B6041F2F402C2F200021378012003F058
:101FA0007F0313707047C04648F24C63C4F20803C5
:101FB000186800F02200202814BF0020012070477C
:101FC00048F24C63C4F20803186800F04000704700
:101FD00070B548F24C63C4F208031A68844612F0E4
:101FE00040002CD048F62800C4F208000368DBB299
:101FF00013F0800F1BD1042B19D9023B8B4216DC46
:10200000DDB2032D3CD845B1002201460B680CF827
:1020100002300132D3B29D42F8D848F62803C4F208
:10202000080319681A68D4B214F0800F08D148F672
:102030003803C4F20803ED221A6000201A6070BD54
:10204000493949B2042089B202F0F4FD032004F0BA
:102050007F0102F0EFFD48F24C62C4F208021368FF
:1020600013F0400F0AD0136813F0800F24D148F604
:102070003803C4F20803ED221A601A602846DEE72E
:102080006C1E0CEB0401032000F000FA4CF202017C
:102090002401C0F60141032044EA010100F000FAE6
:1020A000032000F009FA032000F01EFA032000F0DC
:1020B00027FA0028FAD1B0E740F23440C2F200001B
:1020C00002F014FA2846BAE710B548F62C03C4F219
:1020D00008031A6840F23440042A1EBF41F2F40299
:1020E000C2F200021378C2F200001CBF43F04003AA
:1020F000137048F62C03C4F2080300221A6002F0A1
:10210000F5F910BD40F2344010B5C2F2000002F003
:10211000EDF948F63403C4F2080300221A6010BD3A
:1021200070B541F2F405C2F2000595F90030002BBC
:1021300020DBFFF7ABFB2C7814F0800F0DD148F6B5
:102140003802C4F20802ED23136013606FEA44639F
:10215000E3216FEA536311602B702B784FF6F6740E
:1021600043F01003CFF6FF742B70241AFFF78EFB99
:10217000E042FBD4FFF784FE002852D048F24C64C2
:10218000C4F20804236813F0200F4AD148F638033C
:10219000E922C4F208031A60216811F0020F11D17C
:1021A0000620FFF7FFFA236813F0020F0AD106207A
:1021B000FFF7F8FA236813F0020F03D10620FFF7A8
:1021C000F1FA216848F24C62C4F20802136813F075
:1021D000020F28D148F63803C4F20803EE221A6031
:1021E00001201A602C7814F0100F1BD048F24C62BA
:1021F000C4F20802136813F0020FFBD148F638014D
:10220000ED23C4F2080148F22C620B60C4F208020C
:102210000B6013680BB1EF230B6004F06F032B709E
:1022200000E0022070BD136813F00200DAD01368DA
:1022300013F00200F7D1D5E748F24C6210B584469E
:102240000C46C4F20802136813F0020FFBD141F2EE
:10225000F400C2F2000090F800E01EF0800F0DD1F3
:1022600048F63802C4F20802ED23136013606FEAE7
:102270004E63E3216FEA53631160037048F638033D
:10228000EE22C4F208031A601A6048F62803C4F26A
:102290000803A11C013C196002200CEB040100F0B2
:1022A000EBF84CF202012401CCF2010144EA0101F5
:1022B000022000F0F5F8022000F0FEF8022000F005
:1022C00013F9002010BDC04610B50C46FFF7B4FF4F
:1022D0002046FFF725FF10BD2DE9F04141F2F4063D
:1022E000C2F20006337813F0010702D00020BDE8E7
:1022F000F08142F2A8020125C4F20D0242F2AC03C1
:102300001560C4F20D0342F2B0021D60C4F20D026A
:1023100048F258631560C4F20803F82148F2E872E5
:102320001960C4F20802EF3948F2C8631160C4F2C0
:102330000803152248F224611A60C4F208010B2038
:1023400004232B3218600A600B6848F2086243F0DD
:1023500020030B60C4F2080248F250631760C4F215
:1023600008037F2448F240621C60C4F20802D523AF
:1023700013600E301268FFF71FFD48F28C62C4F242
:10238000080213688D2043F004031360FFF72CFC50
:1023900048F29463C4F208031C608E20FFF724FC0B
:1023A000022000F095F848F62801C4F20801022046
:1023B00000F06CF8032000F08BF848F628010320A9
:1023C000C4F2080100F058F840F23440C2F20000B4
:1023D000394602F05FF8337828462B43337086E79E
:1023E00010B50288044622B940F29E2323800120C2
:1023F00010BD40F29E239A4204D04FF000030380A8
:102400000320F5E7822935D102F06EFC02F0CCFB07
:102410008021FFF7DDFD002808DD80B202F0BEFB61
:1024200046F26C33C0F220031A69904741F2F4007F
:10243000C2F20000037813F0400FD5D048F24C628E
:10244000C4F20802136813F0020FFBD148F63801FA
:10245000ED23C4F2080148F22C620B60C4F20802BA
:102460000B6013680BB1EF230B6000230370FFF7C1
:1024700033FFB9E70120BBE7032805D841F2004349
:10248000C2F20003020199507047C046032806D8E3
:1024900041F20043C2F2000302019B1859607047E9
:1024A000032807D841F200424300C2F20002013380
:1024B00042F833107047C046032808D801228240F2
:1024C0004FF22803C4F20F0319680A431A607047D9
:1024D000032808D8012282404FF22003C4F20F03E0
:1024E00019680A431A607047032808D801228240FD
:1024F0004FF21403C4F20F0319680A431A607047BD
:1025000003280AD8420041F20043C2F2000301321C
:1025100053F8321001F0070070470020FCE7C04676
:102520004FF20453C4F20F034FF0FF321A607047AA
:102530004FF24C03C4F20F0301221A607047C046E9
:1025400010B541F20044C2F20004002140222046AE
:1025500003F042FC4FF204024FF20803C4F20F02F0
:102560000121C4F20F0311602E201C60FFF73CFB19
:102570002F20FFF739FB10BD41F60402C2F2000222
:102580001368834204D02BB15368834200D003B157
:102590007047013342F82300FAE7C04642F258037D
:1025A000C4F20D0300224EF610511A60CEF2000163
:1025B0000B6841F6000243F004030B60C2F2000214
:1025C000012313707047C04670B548F24863C4F2E7
:1025D00008031A6812F03F0F11D141F60404C2F249
:1025E000000423682BB1984748B163680BB1984742
:1025F00028B141F60004C2F2000423780BB930BFC1
:1026000070BDFFF73DF90546FFF740F9D5F101032D
:1026100038BF0023281A092898BF43F00103002B74
:10262000EDD142F20402C4F20D02136813F4801FCC
:10263000FBD142F20002C4F20D02136843F480336E
:10264000136042F20402C4F20D02136813F4803FD7
:10265000FBD0FFF71BF9281A092830D9632808D9BD
:102660002278022A02BF42F25803C4F20D031A6014
:1026700005D042F25803C4F20D0301221A60FFF79D
:1026800005F941F60C03C2F20003186001F0BEFE2A
:1026900030B342F20002C4F20D02136823F4803317
:1026A000136042F20402C4F20D02136813F4803185
:1026B000FBD142F25803C4F20D031960A0E742F2C5
:1026C0000002C4F20D02136823F48033136042F257
:1026D0000402C4F20D02136813F4803FFBD18FE7AC
:1026E000FFF7CEF80028D4D030BF89E710B542F20A
:1026F0005803C4F20D031A6812F0030F00D110BD85
:10270000FFF7C4F841F60C03C2F200031A68801AFE
:10271000000AFFF759F842F20002C4F20D021368F2
:1027200023F48033136042F20402C4F20D021368F2
:1027300013F48031FBD142F25803C4F20D03196047
:10274000DDE7C04670B50546007870B1002401E0B1
:10275000285D28B10134FFF735F92B19002BF7D18B
:102760000A20FFF72FF9204670BD0446F8E7C0465F
:1027700070B50E46054680B1007870B169B100248D
:1027800003E0285D38B1A64205D90134FFF71AF9F4
:102790002B19002BF5D1204670BD0024FBE7C04665
:1027A0008C4659B143F21301C4F20D016144002279
:1027B00011F80139835401326245F9DB7047C04694
:1027C0000FB400B583B004AA52F8041B40F2444091
:1027D000C2F20000019200F031F803B05DF804EBA2
:1027E00004B07047084610B511460AB1FFF7C0FFA4
:1027F000002010BD102970B505460C4603D80FE027
:10280000103C102C0CD946F2BC212B686868C0F231
:1028100020011022984703460028F1D0184670BDC9
:102820000CB92346FAE746F2BC212B686868C0F26F
:102830002001224698470346F0E7C0462DE9F04FB5
:1028400091B002900FAB914600200DF13F0209902C
:10285000019200930B78002B00F01181252B00F0E2
:102860004F834B784A1C14462BB1252B03D014F808
:10287000013F002BF9D1A14210D00298651A0368DC
:102880002A4640689847002840F0D28209994919A1
:1028900009912378002B00F05E84621C11780029D6
:1028A00000F0ED8010460026A1F120038046102B99
:1028B0000AD8DFE803F0C40909BF090909090909B1
:1028C00009BA09B50909B000A1F13103DBB2082B3F
:1028D00000F22E812F2940F22D81392900F22A8120
:1028E000002702E0392900F284817B00FA009B185E
:1028F0005B1818F8011FA3F130072F29F2D84C46B6
:102900002E2900F01D814FF0FF32A14604926C2960
:1029100000F03881682900F07081782900F29680F3
:10292000DFE811F0AD00940094009400940094004E
:1029300094009400940094009400940094009400F7
:1029400094009400940094009400940094009400E7
:1029500094009400940094009400940094009400D7
:102960009400940094009400940094009400DA027F
:1029700094009400940094009400940094009400B7
:1029800094009400940094009400940094009400A7
:102990009400940094009400940094009400940097
:1029A000940094009400D702940094009400D40200
:1029B000D102CE02940094009400940094009400FC
:1029C0009400940094009400940094009400940067
:1029D00094009400CB02940094009400940094001E
:1029E000940094009400C8029400C502C202BF0281
:1029F000BC02B9029400C2029400940094009400B6
:102A00009200E602E30294009400E0029400DD02EA
:102A100094009400E90246F0100610F8011F43E705
:102A200046F0010610F8011F3EE746F0060610F8D2
:102A3000011F39E746F0080610F8011F34E746F099
:102A4000020610F8011F2FE746F4E06606F4E06383
:102A5000B3F5806F00F0048100F29F80B3F5807FB2
:102A600000F03F81B3F5407F0DD0CDF8209008F104
:102A700001010B78DDF82090002B7FF4EFAE099870
:102A800011B0BDE8F08F09F10403089346F2E42287
:102A900046F2D023D9F800100020C0F22002C0F284
:102AA000200316F4804F14BF15461D46002900F080
:102AB00057830FAC01F00F03EA5C0B0943EA007186
:102AC000000904F8012D51EA0002F3D12146009BD0
:102AD0001A1B00F0DA81D41C782301F8013C4A1E4D
:102AE000483B511E02F8013C0D3BBC4201F1FF394D
:102AF00001F8013CC0F00282002516F0010706D162
:102B000002982946FFF776FE002840F0918102984E
:102B100049460368224640689847002840F088816B
:102B2000002F40F0EF81099963185D1909959EE720
:102B30002A296DD0017800272E294C467FF4E3AE78
:102B400018F8010FA0F13003DBB2092B01466DD854
:102B50002F2840F20283392800F2FF82002201E090
:102B6000392809D85300D2009B181B1818F8010FF8
:102B7000A3F130022F28F3D8049201466C29A14614
:102B80007FF4C8AE18F8011F6C2906BF46F0800616
:102B900018F8011F46F06006BFE6B3F5C06F4FD0CE
:102BA000B3F5E06F00F09580B3F5A06F7FF45DAFF3
:102BB00009F104020892D9F80030012F8DF83F3056
:102BC00040F2B7817C1E16F0010700F05481029894
:102BD0000DF13F010368012240689847002840F04A
:102BE0002781002F40F0A7810999631CC91809911A
:102BF0003DE74FF0FF33049389E618F8011F682979
:102C000006BF46F0200618F8011F46F0400684E68D
:102C1000D9F8002009F10404002ABABF46F00106E1
:102C20001746174600F10108417869E62A287FF423
:102C30006AAE04F104092468049418F8011F66E6DA
:102C4000029846F2CC210368C0F2200140680122BC
:102C50009847002840F0EC8009990131099104E778
:102C600009F104030893D9F80040002C00F06882B1
:102C70002378002B00F0C182224612F8013F002B7E
:102C8000FBD1049B121B9A4294BF0021012104989E
:102C9000C34311EAD373054608BF1546BD422CBF96
:102CA0004FF00009C5EB070916F0010700F0D980C5
:102CB00002992A460B68486821469847002840F048
:102CC000B780002F40F02B81099AAB184B44099331
:102CD000CDE609F104020892D9F80030099818608D
:102CE000C5E6049A002AA8BF26F01006C0F2148197
:102CF00016F40050039000F09E8006F0E003402B95
:102D000000F04A8200F22181002B40F02C8209F170
:102D100004030893D9F800301A464FEAE273002BF7
:102D2000C0F20782DDF8209092469B460023CDF842
:102D30002090079306F4C053B3F5805F00F0BD8187
:102D4000B3F5C05F00F08F81B3F5006F00F06681CE
:102D500000230DF13F0905930599049A9142C0F0B3
:102D60000D8141F608020023C0F20002069306EA34
:102D7000020241F208039A4200F00F810599069B76
:102D8000581841F608039A4214BF002201225AEA59
:102D90000B014FF0000318BF012312EA030104BF27
:102DA0000C4625460DD046F2FC2246F2F82316F4D6
:102DB000804FC0F22002C0F2200314BF14461C460C
:102DC0000225039A42B1079B002B00F0188145F6BB
:102DD000B464C0F2200401252918B9422CBF4FF079
:102DE000000AC1EB070A16F0010707D116F0100F11
:102DF00000F08081069850440690BA46002D40F0BD
:102E0000E980069A102A98BF144640F2CD80069CAD
:102E100003E0103C102C40F2C780029846F20C31BF
:102E20000368C0F220014068102298470028F0D0C3
:102E30004FF0FF3024E606F0E003402B00F0D28193
:102E400040F28E80602B00F0C281802B00F0B381B5
:102E50000020CDF820904FF0000A4FF0000B0790B3
:102E600068E702984946FFF7C5FC00283FF420AF09
:102E70004FF0FF3004E602982146FFF7BBFC002824
:102E8000D6D1099B1B190993A1E63023611E04F8D2
:102E9000013C042420E646F48136D7E546F400766A
:102EA000D4E546F40246D1E546F42456CEE546F490
:102EB000A066CBE546F4C136C8E546F4B246C5E5A2
:102EC00046F4A136C2E546F48446BFE546F44246E0
:102ED000BCE546F4E136B9E546F4C066B6E546F42D
:102EE0001066B3E546F48066B0E546F44076ADE59D
:102EF00046F48856AAE546F4C856A7E53D1BFCE50E
:102F00004A1CCBE402982946FFF774FC00283FF4E2
:102F10000AAE4FF0FF30B3E501230493E8E60298D0
:102F20004946FFF767FC00283FF4CEAE4FF0FF3074
:102F3000A6E5002447E602982146FFF75BFC00283F
:102F40003FF452AE4FF0FF309AE5602B00F0628103
:102F5000802B00F055814FF0000A4FF0000BE5E6A2
:102F6000002B40F00C8109F104010891D9F80030E0
:102F7000039A9A464FF0000B0792DBE641F60802EF
:102F800004980599C0F2000206EA020241F2080321
:102F9000401A9A4206907FF4F1AE0698002840F05D
:102FA000C28001210691E9E6002C40F0AD80029A32
:102FB000494613685068059A984700287FF438AF4F
:102FC000A7B909990598069A43185B199B185344A9
:102FD00009934CE502992A460B68486821469847B0
:102FE00000283FF40EAF4FF0FF3049E502985146FC
:102FF000FFF700FC0028E4D04FF0FF3040E506F07A
:103000000602022A00F0D18046F20033062AC0F2FE
:10301000200308BF1C4608BF0125DDE65AEA0B0164
:1030200004BF0DF13F020DF13F0918D00DF13F092A
:1030300054465D46204629460A22002302F0BEF986
:10304000303209F8012D204629460A22002302F0D9
:10305000B5F950EA010204460D46EBD14A46019B00
:103060009A1A059278E646F2E42246F2D023C0F29C
:10307000200216F4804FC0F2200314BF15461D46EF
:103080005AEA0B0204BF0DF13F040DF13F0910D0C5
:103090000DF13F045146584601F00F03EA5C0B095D
:1030A00043EA0071000951EA000304F8012DF3D14D
:1030B000A1460198041B05944EE65AEA0B0004BF92
:1030C0000DF13F000DF13F0910D00DF13F005246C8
:1030D000594602F00703D208303342EA4172C90868
:1030E00000F8013D52EA0103F3D181460199081A23
:1030F000059031E602985146FFF77CFB00283FF42B
:103100007DAE4FF0FF30BBE4029922460B68486861
:1031100046F20C31C0F22001984700283FF447AF37
:103120004FF0FF30ACE40699059A00248818254634
:1031300047E6D2F1000A63EB430B01220792F9E55F
:10314000049846F2043405288CBF00210121062290
:10315000C0F220049BE5084692E4002104910CE5AE
:103160000FAC0FA9B3E4202B7FF4F5AE09F10401F5
:10317000089199F900301A464FEAE273CFE5202B07
:103180007FF466AE09F10401039A089199F800A052
:103190004FF0000B0792CDE509F104020892B9F94E
:1031A00000301A464FEAE273B9E546F2D004C0F2A5
:1031B0002004012510E609F1070323F0070303F1BA
:1031C0000801039A0891D3E900AB0792B2E509F12F
:1031D00004030893D9F8003003989A464FF0000B87
:1031E0000790A7E509F104030893B9F800300398A4
:1031F0009A464FF0000B07909CE51A46194646E5A3
:1032000009F1070323F0070303F108010891D3E94B
:10321000002384E509F104000890D9F800301A462B
:103220004FEAE2737BE5C04610B5022202F058FD7A
:10323000D0F1010038BF002010BDC04610B50222F9
:1032400002F07EFD10BDC04670B500F0D5F9054610
:1032500041F61000C2F2000001F09EFA044640B1AF
:10326000636803B19847204601F002FB044600283A
:10327000F6D115B1284600F085F970BD10B501F002
:10328000B3FE01F031FD00F06FF800F0C5F9022047
:103290004FF400714FF4F0524FF4E12300F06EF858
:1032A00010BDC04610B5044600F094F900B910BD39
:1032B00001F0A8FD46F29C33C0F2200343F2D12076
:1032C000C0F220009A68214690470120EFE7C046EF
:1032D0002DE9F041064641F61000C2F200000D460D
:1032E000174601F059FA044648B1A3680BB12846C5
:1032F0009847204601F0BCFA04460028F5D1304634
:1033000029463A4600F044F9BDE8F08141F6180339
:10331000C2F200031860704741F6140010B5C2F203
:10332000000001F039FA10BD2DE9F041064641F6E2
:103330001400C2F2000017460C4601F02DFA0246B6
:1033400028B90EE0104601F093FA024648B193887E
:10335000A342F7D1956825B11046314622463B4637
:10336000A847BDE8F081C04641F6140010B5C2F28E
:10337000000001F00DFA10BD7047C0462DE9704AFB
:1033800041F61C04C2F200040546914646F234326E
:103390000E4620462946C0F220029B4600F0CAF89D
:1033A00043F25D40C0F22000A665C4F85C90C4F80A
:1033B00060B0FFF7ABFFBDE8708AC046F0B583B0E0
:1033C0000F4601F0F1FB0546022229460DF10600E9
:1033D00002F0B6FCBDF8064001F016FCA400023471
:1033E000844218D8BDF80630ABB1023500240DF187
:1033F000020629460422304602F0A2FC3846BDF8F7
:103400000210BDF80420FFF78FFFBDF8063001342D
:103410000435A342EDDC03B0F0BDC04610B541F663
:103420001C04C2F2000443F27D42616E002304F1E9
:103430003800C0F2200201F085FA01F0C7FA616E8F
:1034400043F29D42B0FBF1F303FB1101C0F22002F5
:1034500004F11800002301F075FA10BD10B59DF8B5
:103460000830012B00D010BD41F61C03C2F200034E
:103470009A6D5A66FFF7D2FFF5E7C04610B541F6E0
:103480001C03C2F200035A6E196E52008A4294BFA6
:103490005A665966FFF7C2FF10BDC04610B501F06D
:1034A00023FC01F081FB4FF0000202800446FFF78D
:1034B00033FF014690B914E023888A889B00E31803
:1034C0005A802288CB889200A218938023880846CD
:1034D0000133238001F0CCF9014610B10B7B002BA6
:1034E000EAD123884FF6FE709B000233C0F2000041
:1034F00003EA000001F052FB23882BB141F61C00C7
:10350000C2F2000000F008F810BDC04610B54369D3
:103510005B6803B1984710BD42F2E03110B5C2F2CA
:1035200000010446182001F09FFB204600F036F809
:1035300010BDC04670B5154646F24032C0F22002BA
:1035400004460E4600F02EF846F23C3165613046E6
:10355000C0F2200100F086F870BDC04630B50446C8
:1035600083B0182001F076FB0DF1060501462846D0
:10357000FFF764FE63691B6813B12046294698472C
:1035800003B030BD10B503691B6803B1984710BD87
:1035900010B503695B6803B1984710BD10B5FFF71C
:1035A00081FE10BD70B504460E46154600F04EF87B
:1035B00046F2483125613046C0F2200100F052F851
:1035C00070BDC04646F24C33C0F2200310B59A6875
:1035D000904710BD46F24C33C0F2200370B55A68D4
:1035E00005469047A9880446012001F023FB201ED0
:1035F00018BF012070BDC04646F24C33C0F2200314
:1036000010B51A689047044618B10120A18801F04E
:1036100011FB204610BDC04610B500F02FF810BDBC
:1036200010B5044641F68800C2F2000001F0B4F87B
:10363000024628B907E0104601F01AF9024610B117
:103640009388A342F7D1104610BDC046034610B57B
:10365000818041F68800C2F20000194601F09EF810
:1036600010BDC04670B50D46FFF7DAFF044620B125
:1036700085602846FFF7A6FF207370BD41F68800DD
:1036800010B5C2F2000001F083F810BD072BF0B4B2
:103690000746154608461C4640DDC2B94FEAE30C12
:1036A000835CBB5401326245FADB14F007040CD092
:1036B00046F25833C0F2200310F80C101A5DC4F122
:1036C00008031140194107F80C10F0BC7047DE10D8
:1036D0004FF0000C00EB0C0210F80C10537843EA8A
:1036E0000123AB401B1207F80C300CF1010CB44560
:1036F000F0DB14F00704E8D08319825D597846F2B4
:10370000583341EA0221A940C0F220031A5DC4F1F6
:10371000080302EA21221A41BA55D6E70B78497804
:1037200041EA0321914046F25833C0F220031A5D6A
:10373000C4F1080302EA21221A413A70C5E7C046E3
:10374000037843B10021437810F8022FC918002AEA
:10375000F9D1084670471946FBE7C046072B2DE90B
:10376000F0030446894615461E4650DD09BB4FEA64
:10377000E30C6B5C635401316145FADB16F0070121
:1037800014D015F80C20C1F108031A41C1F110033F
:10379000D2B29A4014F80C3092B243EA122304EBEE
:1037A0000C0004F80C3041780A434270BDE8F00385
:1037B0007047DF10C1F1080800204FF0010C2B5CAE
:1037C000225C03FA08F39BB242EA1322225414F853
:1037D0000C1001300B43B84204F80C300CF1010C12
:1037E000EDDB16F00701E1D0EA5D09F108035B1A91
:1037F0001A41C1F11003D2B29A40E35D92B243EA9A
:103800001223E019E35541780A434270CEE712785B
:10381000C1F110039B1B9A404178037892B243EAAE
:1038200012230A4303704270C0E7C0462DE9F043FB
:10383000027B044612F0070318BF012303EBD205F5
:1038400083B0A81C01F072F910B903B0BDE8F08391
:1038500001F0B8F9A2880270A3881B0A437001F036
:10386000B1F900F10208404600212A4602F0B4FAFC
:10387000A368187830B31C4600250DF106090DE049
:1038800001F0E8F905F007010246334608EB0700AE
:10389000FFF764FF14F8020FA0B1AD19EF1017285D
:1038A0006678EDD801F0CEF905F00701ADF8060015
:1038B0004A4608EB07003346FFF750FF14F8020FA3
:1038C0000028EAD10120C0E72DE9F04782B001F0DD
:1038D0006BF90446022001F049F920B90024204682
:1038E00002B0BDE8F087607823780002C01880B28B
:1038F000FFF796FE04460028F1D001F055F9237B2E
:10390000804613F0070018BF012000EBD30001F040
:103910002DF90028E2D0A2681378002BDFD01546DD
:1039200000260DF1040A0DF1060910E008EB020172
:10393000484606F007023B46FFF7A8FE28784946AE
:1039400001F092F915F8023F002BC8D0F619F210D9
:10395000172B6F78EAD84FF0000308EB0201ADF89F
:103960000430504606F007023B46FFF78FFE2878EA
:10397000BDF8041001F05EF9E4E7C04646F280238A
:10398000C0F2200310B51A6A904710BD10B530B9C7
:1039900046F28023C0F220035A6A904710BD46F2D7
:1039A0008023C0F220031A6A9047F7E7002070478F
:1039B00046F28023C0F2200310B51A6A904710BD6A
:1039C0002DE9F04101F020F901F0EEF801F01CF9C9
:1039D000032851D046F28C33C0F220035A68904736
:1039E000002849DB192001F035F942F2E031C2F23A
:1039F0000001FFF719FC002840D041F68C06002793
:103A0000C2F200063C463D46B04603E001340335B1
:103A1000082C15D00D2001F015F973199A788242FF
:103A2000F4D1182001F016F9610009194144FFF79B
:103A3000FBFB0134002818BF01270335082CE9D10E
:103A4000D7B9144DEC1E28460322214602F078F91E
:103A5000A6422546F6D10D2001F0F4F8A0701820FA
:103A600001F0F8F801462046FFF7E8FB46F29C33E8
:103A7000C0F22003DA689047BDE8F081192001F018
:103A8000E9F846F21C31C0F22001FFF7CDFB002817
:103A9000B3D1F1E7A11800202DE9F043884642F2A6
:103AA000E03183B0C2F200010746182001F0DCF8D3
:103AB00001210B2001F0BEF846F28C33C0F2200346
:103AC0001A689047002827DB01F07CF846F2802630
:103AD000C0F22006756890F8029001F073F8044671
:103AE00001F098F801462046A847192001F0B2F8E5
:103AF00046F21C31C0F22001FFF796FBB369054680
:103B00009847C0B99DB1B46801F084F8A047A0B946
:103B1000BDB10124002201E00522002438464146BF
:103B2000012300F069F8204603B0BDE8F083F36993
:103B300098470028E7D00122EFE70228FBD00422B3
:103B4000EBE7FDF7A3FE0446FEF718F84FF6F37512
:103B5000CFF6FF752D1BFDF799FEE842FBD446F228
:103B60008024B369C0F22004984710B9E3699847EC
:103B700020B3FDF78BFE0446FEF700F84FF6EB7519
:103B8000CFF6FF752D1BFDF781FEE842FBD446F210
:103B90008024F369C0F22004984708B90222BCE7E8
:103BA000032123690DF1050098470328C3D19DF82F
:103BB00007304B45BFD101240022AFE76369984726
:103BC0000028EBD1D5E7C04670B5134606460D4632
:103BD00012B90BE023464CB158681C6801F064F937
:103BE00030462946FFF758FF0028F3D170BDC04684
:103BF00010B5FFF751FF10BD10B5844618B1084647
:103C000011461A46E04710BD30B591B000F0FCFFF8
:103C100001AD044600F0C8FF21462A4601F032FA01
:103C200018B94FF0FF3011B030BD9DF83C00201A9C
:103C300000F09CFF0028F4D09DF8090090B90DF128
:103C40001A01182001F010F89DF80610122000F05B
:103C5000F1FF0D209DF80C1000F0ECFF9DF83C30BA
:103C6000E01AE0E7BDF80E304FF6FF729A1A18BF5F
:103C7000012245F249418B420CBF002202F00102B1
:103C8000002ACED102280CBF0221082101E0002920
:103C9000D5DD01396B181A7BFF2AF8D0192004A949
:103CA00000F0E2FFCBE7C04630B591B001AD3C2259
:103CB0002846002102F090F841F6A502C2F2000267
:103CC0001378002B00F085800123002412208DF84A
:103CD00004308DF8054000F0B5FF8DF8060019207E
:103CE00000F0B8FF46F21C31C0F22001FFF79CFA49
:103CF000002868D08DF8074000230A208DF808308E
:103D00008DF80A3000F09EFF00283DD00A2000F018
:103D100099FF8DF80C0045F24943022419208DF8D3
:103D20000B40ADF80E3000F095FF46F21C31C0F2AA
:103D30002001FFF779FA00283BD04FF0FF338DF8D0
:103D400009408DF810308DF8113042F2E03145F223
:103D50004943C2F200010DF11A00ADF81830FFF727
:103D60006DFA00F021FF0E9000F04EFF8DF83C0040
:103D7000284601F00BFB044600F0D8FE88B94FF04E
:103D8000FF34204611B030BD41F6A403C2F2000357
:103D900019780A204A1C1A708DF80C1000F04AFF9E
:103DA000B9E700F00FFF22460146284601F05AFA13
:103DB000E7E7192000F04EFF014604A8FFF73EFA9E
:103DC0008DF80940C1E70B2000F03CFF8DF807009B
:103DD00092E70133137000F0F9FD41F6A403C2F23B
:103DE0000003187070E7C04646F22833C0F2200383
:103DF00010B59A68904710BD46F26C33C0F22003AC
:103E000010B55A69904710BD46F26C33C0F22003DA
:103E100010B59A69904710BD46F26C33C0F220038A
:103E2000D86910B500B1804710BDC04670B50546D1
:103E300078B1006B00F0B0FC024650B146F26C3332
:103E4000C0F2200344F26100DC68C0F22000294681
:103E5000A04770BD2DE9F04107461920884600F0C3
:103E6000F9FE41F67C12C2F200021388054613B92E
:103E70004FF00103138011880A204B1C138000F0BF
:103E8000D9FE41F61810C2F2000000F085FC04468D
:103E900030B93DE0204600F0EBFC0446002837D066
:103EA000201D2946FFF7C0F90028F3D040F26440F6
:103EB000C2F2000000F0F0FB0646002858D040F2A5
:103EC0004C40C2F2000000F0E7FBB060002848D090
:103ED00001F050F8706000283CD00920B56800F06F
:103EE000B1FE002862D103232B720E202F60C5F88B
:103EF000048000F0A7FE012853D0206B314600F06B
:103F00004DFC206B00F048FC864254D0BDE8F081A7
:103F100040F25840C2F2000000F0BEFB0446002808
:103F200038D02946201DFFF789F9002304F12C0021
:103F3000206384F8283084F8293084F82A30E3623A
:103F400000F026FC41F61810C2F20000214600F0F5
:103F500025FCABE740F24C40C2F20000B16800F033
:103F6000B7FB40F26440C2F20000314600F0B0FB03
:103F7000206B00F071FC68B941F61810C2F2000025
:103F8000214600F053FC40F25840C2F200002146A6
:103F900000F09EFB3846414604220123FFF72CFE29
:103FA000B4E7206B314600F021FCAAE7092000F0BD
:103FB00049FE287299E743F62D6204F108000021BA
:103FC000C0F22002234600F0BDFC9FE770B5054615
:103FD0000C4689B3006B00F029FC606800F098FF84
:103FE00040F24C40A168C2F2000000F071FB40F2C8
:103FF0006440C2F20000214600F06AFB286B00F02A
:10400000CBFBD0B146F26C330022C0F2200385F81E
:10401000282085F8292085F82A20DA69904743F678
:104020002D62002814BF01461021C0F2200205F1C4
:1040300008002B4600F086FC70BD05F1080000F07A
:104040006BFC41F618102946C2F2000000F0EEFBAE
:1040500040F258402946C2F2000000F039FBEBE77D
:104060002DE9F04F0F4683B00646002834D00329CF
:1040700008D8DFE801F03A343A0290F82A300133E8
:1040800080F82A30306B00F087FB054628B923E022
:10409000284600F0EDFB0546F0B10A21686800F003
:1040A000FDFE04460A2000F0CDFD8442F0D1AC684C
:1040B00094B17B1E012BD4F80080D4F8049096F8BC
:1040C00028A018D930462946FFF780FF40464946C8
:1040D0003A465346FFF790FD03B0BDE8F08F90F8E5
:1040E0002930013380F82930CCE790F828300133AB
:1040F00080F82830C6E746F26C33C0F22003DA6954
:104100009047002808BF1020019096F828B000F0D2
:104110005DFC96F82820237A9A42D3D2019A0BF1BB
:104120000103032BA8BF032303FB02F3B0FBF3F14E
:1041300003FB1101891843F62D6206F10800C0F255
:104140002002334600F0FEFB686800F00BFFC3E777
:1041500040F2644010B5C2F2000000F0EDFA40F207
:104160004C40C2F2000000F0E7FA40F25840C2F2C0
:10417000000000F0E1FA10BD41F6FA13C2F20003AC
:104180001878421C1A70704770B5837B044613F090
:10419000010F0D4618D08368B3B141F6FC13C2F28B
:1041A000000318600220A073A36804F10C00984774
:1041B000832D14BF002301230238012898BF43F048
:1041C000010313B90123A37370BD2046214600F0FB
:1041D00001F8F9E72DE9F04741F60026C2F20006A2
:1041E000326841F6FC17131E18BF0123C2F2000704
:1041F00082420CBF002303F0010305468846D7F82E
:10420000009053B11268131E18BF012395420CBFD2
:10421000002303F00103002BF4D1002A30D0AB7B44
:10422000C3B10023AB7334684CB1A54204D020461F
:1042300087212A46FFF7A8FF2468002CF5D1AA6839
:10424000B5EB080318BF0123002A0CBF002303F0BD
:104250000103BBB9316841F600248D4208BF2B68C9
:10426000C2F2000408BF236008D011B906E0194665
:1042700023B10B68AB42FAD12B680B60C7F80090F2
:10428000BDE8F0873D60AB6805F10C00832100229A
:104290009847DFE741F6FA13C2F200036FF07501A9
:1042A000197041F6E81241F6F8137631C2F20002B5
:1042B000C2F200031170197041F6002241F6FC139E
:1042C000C2F20002C2F20003116019607047C046DA
:1042D0002DE9F84F41F60427C2F200073B78CBB135
:1042E00041F60023C2F200031C6800223A708CB130
:1042F0000126154601E0246864B1E37B002BFAD067
:10430000A673E573204682210022FFF73DFF246853
:10431000002CF2D141F6F816C2F2000696F800A081
:10432000BAF1000F2FD041F6E814C2F20004217850
:1043300041F6082288000B011B1AC2F2000212F893
:1043400003C041F6FB19C2F20009D51889F800C074
:104350006A6841F6F018C2F20008C8F80020A868A0
:1043600041F6EC13C2F200030131186001F01F01A5
:104370000AF1FF332170337050B1BCF1810F42D08C
:104380006146FFF701FF3B7830781818BDE8F88FD9
:1043900041F6002BC2F2000BDBF8003041F6F415B9
:1043A000C2F200052B60002BEDD041F6042AC2F2C8
:1043B000000A3B78D3B1DBF800404FF000038AF8E5
:1043C000003014B912E0246884B1E37B002BFAD0EA
:1043D0004FF00103A3734FF00003E37320468221E3
:1043E0000022FFF7D1FE2468002CEED1D8F800207F
:1043F000286899F80010FFF7C7FE2B681A682A6032
:10440000002AD6D1BFE701238373B9E741F604231D
:1044100041F6F812C2F20003C2F2000219781078D5
:1044200008187047F0B441F6F814C2F2000494F88A
:1044300000C00746BCF1200F0D4616461DD041F6C0
:10444000E813C2F200031A7841F6F913624402F04D
:104450001F02C2F200031A7041F6082193001201F4
:10446000D21AC2F2000188180CF10103466087607D
:104470008D5400202370F0BC70470120FBE7C0463C
:1044800070B541F6FC14C2F200042568FFF77CFE0B
:10449000256070BD10B541F60024C2F20004226808
:1044A0008C46131E18BF012382420CBF002303F069
:1044B0000103CBB1114609680B1E18BF01238842C6
:1044C0000CBF002303F00103002BF4D181420AD07A
:1044D00001230260206083734FF0000383818121F8
:1044E0006246FFF7CDFF10BD1146EFE758B1837B61
:1044F000013BDBB2012B06D841F604230122C2F2B4
:104500000003C2731A70704770B50546006880B129
:104510002C1D0021FFF7BEFF2B6846F2E030C0F2F1
:1045200020005968FEF74CF9254654F8040B002882
:10453000EFD170BD70B504880646672C13D0792C76
:1045400038D024B14FF000030380032070BDFFF783
:1045500013FE42F2E23341F69442C2F20003C2F289
:1045600000021870146041F6944441F60945C2F205
:104570000004C2F2000541F68C40C2F2000000F0D7
:10458000A7FAB0F1FF3F10D00A281FD023687E2B76
:10459000F1DCE854013341F68C402360C2F20000A4
:1045A00000F096FAB0F1FF3FEED14FF06703338091
:1045B0000230CBE7852904BF41F69445C2F20005DD
:1045C00002D100232B60CEE70120BFE741F69445DE
:1045D000C2F20005296841F60942C2F20002002435
:1045E00042F2E2335454C2F2000301312960204602
:1045F0001978FFF717FF41F6FC13C2F200031868A1
:1046000085212246FFF70EFF0028DAD14FF079030B
:10461000338001309AE7C04641F68C4041F688313C
:1046200010B5C2F20000C2F20001802200F032FA9E
:1046300040F27040C2F200000021FFF72BFF10BDD6
:104640000D2810B501461AD041F60844C2F2000404
:1046500023784BB10A2814D040F27040C2F2000017
:10466000FFF744FF012010BD41F68C40C2F200006C
:1046700000F018FA0028EFD101232370ECE70020A6
:10468000F1E741F68C40C2F2000000F00BFA00287E
:10469000E2D000232370DFE730B44488054654B1EC
:1046A0004268137893B1002002E0135C11182BB11B
:1046B0000130A042F9DB002030BC70470A460123DC
:1046C00013702A88AB6802FB0030F5E71846F6E75E
:1046D00030B40546836840880C4670B18B4219D0CF
:1046E0002988002203EB010C04E08C44C1EB0C038D
:1046F0009C4205D001328242F7DBFF2030BC70477C
:1047000011466A68505C0028F8D0431E53546A680A
:10471000505CF3E70021F4E78C468168614501D9DC
:10472000002070470388428802FB03139C452CBF7E
:1047300000200120F5E7C04610B50446002162883C
:10474000406801F049FB63882288A068002102FBD1
:1047500003F201F041FB10BD036842689B1803603F
:104760007047C04610B50446FDF710F82368C3F142
:1047700001031B18606898422CBF0020012010BD67
:1047800010B541600446FDF701F8206010BDC04639
:10479000002303607047C0460068704710B40446A9
:1047A000236808464BB199421A4602D11BE0904259
:1047B0000ED011461268002AF9D100230360236845
:1047C0007BB11A461B68002BFBD1106010BC7047F0
:1047D00003680B6000231360002303602368002B31
:1047E000EFD12060F2E70B682360F3E710B40368B1
:1047F0000446B3B19942184618BF1A4603D112E0D5
:10480000994207D01A461368002BF9D1086021603D
:1048100010BC70470B6808461360002303602068D3
:10482000F4E71846F2E70B682360F6E703684BB13C
:104830008B421A4602D10BE0914204D01046126816
:10484000002AF9D170471368036000231360F9E769
:104850001B680360F9E7C046006830B100230068B8
:1048600001330028FBD1184670470346FBE7C046DA
:1048700000B100687047C0462DE9F0410388064644
:104880001546CBB941F69840C2F20000FFF784FF0D
:10489000044630B1201DA168FBF7C2FF2468002C3C
:1048A000F8D141F69C43C2F2000301221A704FF086
:1048B0004A033380012005E04A2B05D04FF0000366
:1048C00003800320BDE8F081882922D141F6984079
:1048D000C2F20000FFF760FF044618B9E7E724685A
:1048E000002CE4D0231D9D42F9D141F69840C2F23C
:1048F00000002146FFF79AFF41F6FC156369C2F2FA
:1049000000052F682B60A3690BB1E06998472F6001
:10491000CDE70120D6E7C04610B541F69C43C2F270
:1049200000031B7804464BB9C360036141F698400D
:10493000C2F200002146FFF779FF10BD0430FBF7FB
:10494000A9FEF3E770B541F6FC16C2F20006054673
:104950003068EB6141F69C436861AA61C2F20003D2
:104960001A780C467AB9A96041F698402946C2F2F5
:104970000000FFF75BFF41F69840C2F200002946B5
:10498000FFF70CFF70BD346840F28043C2F20003B1
:10499000281D3360FBF744FF3460E5E741F69C4394
:1049A00010B5C2F20003002441F698401C70C2F218
:1049B0000000FFF7EDFE40F28040C2F20000214609
:1049C000FFF768FD10BDC0467047C04647F20001C2
:1049D000C4F20D010B6847F2140243F004030B60AC
:1049E00047F21803C4F20D02C4F20D0310681A68EE
:1049F00040EA022080B2704747F20001C4F20D0184
:104A00000B6842F2A80223F00C030B60C4F20D0203
:104A1000012148F224631160C4F20803073148F60B
:104A200038021960C4F20802E323136048F264629A
:104A3000C4F20802136813F0010FFBD048F29C6027
:104A40000021C4F2080048F2030C0022036801327E
:104A500003F0010341EA03035B00102A99B2F5D188
:104A6000614514BF00230123002908BF43F001035F
:104A7000002BEAD147F214020B0AC4F20D021360B4
:104A800001F0FF0148F638031160C4F20803EF2279
:104A90001A6070470023013A01600271437183710B
:104AA0007047C04690F805C083790279C3EB0C03C8
:104AB00013409A4209D0036803F80C104279037935
:104AC00001321A404271012070470020FCE7C046C5
:104AD0008279437990F804C09B1A13EA0C0F08BF3F
:104AE0004FF0FF3006D00368995C013202EA0C02F5
:104AF000827108467047C04646F28023C0F2200308
:104B000010B51A68904746F26C33C0F220035A6819
:104B1000904746F29C33C0F220035A68904746F211
:104B20002833C0F220035A68904710BD10B40446E1
:104B300041F6A440C2F2000090F800C0A44511DB89
:104B400041F6A642C2F20002CCF130031188DBB27A
:104B50005B189BB21B19802B04DCC4EB0C030370A5
:104B6000012000E0002010BC7047C046014641F61D
:104B7000A640C2F20000B0F800C08C450CDB41F644
:104B80005A52C2F20002138889B2CB18C1EB0C0151
:104B900001801380012070470020FCE741F6A64306
:104BA000C2F200031880704741F65A53C2F2000364
:104BB00046F228421888C0F22002136830301818D4
:104BC0007047C04646F2284241F6A443C0F2200294
:104BD000C2F20003197810684018704746F2284363
:104BE000C0F220031A6841F6A043C2F2000318681D
:104BF0003032801A18BF01207047C04641F6A043EA
:104C0000C2F200031868704741F6A643C2F20003DF
:104C10001888704741F6A443C2F20003187841F6A1
:104C2000A643C2F200031A88C0F13000C0B2801857
:104C300080B2704742F2EC33C2F2000323F8101046
:104C40000120704742F2EC33C2F2000333F8100047
:104C50007047C046A0F1180342F2E4305B00C2F294
:104C60000000C0187047C046A0F1180342F2E430BB
:104C70005B00C2F20000C01810B5FEF7DFFA012099
:104C800010BDC04610B542F2EC320023C2F2000261
:104C90004FF00001D1520233302BF9D142F2E4300F
:104CA00046F21C31C2F20000C0F22001FEF7C6FA43
:104CB00046F21C310948C0F22001FEF7BFFA46F265
:104CC0001C310748C0F22001FEF7B8FA46F21C3149
:104CD0000448C0F22001FEF7B1FA10BDE62300201F
:104CE000E8230020EA23002041F65A520021C2F2B4
:104CF000000241F6A64310B5C2F20003118041F64E
:104D0000A4421980C2F200023023137046F22843F5
:104D1000C0F220031A6841F6A041C2F2000130320D
:104D20000A60FFF7AFFF10BD034642F2EC3010B54A
:104D300030220C46C2F20000194601F001F842F29E
:104D4000E43021460822C2F2000000F0F9FF10BD55
:104D500010B50C4642F2EC313022C2F2000100F0F4
:104D6000EFFF42F2E4312046C2F20001082200F0D7
:104D7000E7FF10BD2DE9F04141F6A446C2F200065E
:104D800041F6A6453478C2F200052B88C4F1300202
:104D9000D318802B074602DD0020BDE8F08146F2E3
:104DA0002843C0F220031968091900F0C9FF41F631
:104DB000A04241F65A53C2F200033078C2F2000218
:104DC0001C881168C0F130002A883818091900F0D1
:104DD000B7FF2B8832783033981ADEE710B546F2E9
:104DE000284341F6A444C2F20004C0F22003227812
:104DF00019688918C2F1300200F0A2FF2078C0F1D2
:104E0000300010BD70B546F22843C0F2200341F6D1
:104E1000A0421C68C2F20002116804F13000814215
:104E200007D041F6A643C2F200031A8800F088FFBB
:104E300070BD41F65A55C2F2000529880029F7D005
:104E400041F6A643C2F200031A8802F1300042B1D3
:104E50006118302291F830300131A3540132904270
:104E6000F8DC4FF000032B80E2E7C04670B5054642
:104E70000C46FFF739FF41F6A043802C28BF802461
:104E8000C2F2000318682946224600F059FF41F695
:104E9000A643C2F200031C80204670BD0368403167
:104EA00049005B185888704770B5054640F290403D
:104EB000C2F200002946FFF72FFC40B940F29C40A7
:104EC000C2F200002946FFF727FC68B970BD2D68C3
:104ED0002C4634F8821BA81CFFF7C8FF204605F1BA
:104EE000B201FFF721FFF1E7FFF7FEFE29886868AE
:104EF000FFF7BCFF95F83800FFF718FEFFF762FEDA
:104F000005F1080195F8382000F01AFFDEE7C046E9
:104F100010B5044640F29040C2F200002146FFF76F
:104F2000FBFB40B940F29C40C2F200002146FFF773
:104F3000F3FB78B910BD40F2A8402168C2F200002E
:104F4000FFF7C6FB40F290402146C2F20000FFF797
:104F5000BFFBEFE740F29C402146C2F20000FFF7A2
:104F6000B7FBE7E710B5016801F18200B231FFF746
:104F7000EFFE10BD70B5FFF731FEA8B140F29C40C6
:104F8000C2F20000FFF788FB044658B1FFF73CFE71
:104F90002080FFF733FE606004F10800FFF71EFF7A
:104FA00084F83800204670BD40F29040C2F2000004
:104FB000FFF772FB04460028F4D040F2A840C2F28A
:104FC0000000FFF769FB0546206058B10230FFF78B
:104FD000D1FE2B4623F8820B184605F1B201FFF7EC
:104FE000B7FEDFE70446DDE740F2A84010B5C2F2A5
:104FF0000000FFF7A1FB40F29040C2F20000FFF773
:105000009BFB40F29C40C2F20000FFF795FB10BDF5
:1050100010B5FCF79FFAFCF7D7FA4CF200044FF4F6
:105020004070C4F20D04FCF73BFB4FF44070FCF7FA
:1050300011FB20460421FCF769FA20460821FCF701
:1050400065FA44F2301220460421C4F20D02FCF746
:10505000E3F844F22C1220460821C4F20D02FCF7BA
:10506000DBF8204604210C22FCF782F808212046B8
:105070000B22FCF77DF8FCF76DFA0021FCF728FB0A
:1050800010BDC0462DE9F041022982B0074688468E
:10509000164603DC002002B0BDE8F0810178FD1C5B
:1050A000CB0801F0070203F001038DF800208DF812
:1050B00001300A094B09890902F0010203F00103DA
:1050C00001F001018DF802208DF803308DF80410F5
:1050D00040788308020903F00303800902F0030209
:1050E0008DF805308DF806208DF807006B4693E8A3
:1050F000030086E803009DF80540BB7833722CB3AB
:105100006B78FA781B029B187D1D022C73814BD0A3
:10511000032C3DD09DF807402CB39DF8043093B983
:105120006B7815F8022B1B029B18B382022C49D016
:10513000032C22D0E81BC0EB0803804586F83830EA
:105140007563A8DAA6E77389B382EFE746F21C31EC
:1051500006F10C00C0F22001FEF770F874819DF892
:105160000740002CD9D146F21C3106F11600C0F2DE
:105170002001FEF763F8B482DCE731460722AB5C1E
:10518000013A8B750131B2F1FF3FF8D10835D1E713
:105190003A463146A7F10800137B013A0B730131FF
:1051A0008242F9D10835B5E746F21C3106F10C0010
:1051B000C0F22001FEF742F86B78FD1D33737A7957
:1051C0007273A7E746F21C3106F11600C0F2200107
:1051D000FEF734F86B78B37515F8022BF275A9E772
:1051E00000230A4610B402F8013B01324B7002F86A
:1051F000013B02F8013B13700C46417911F0030F9B
:1052000001D002332370C37913F0030F01D00223BE
:10521000A370417911F0030F03D0C37913F0030F8A
:1052200016D10023037101F00303022B03D0032BDB
:105230000CBF082300236370C37903F00300022826
:1052400003D003280CBF08200020E07010BC70477A
:10525000828A43899A42E4D1012300220371A27019
:105260004179E0E72DE9F04182B00D460DF10301EF
:1052700014460646FFF7B4FF9DF803E09DF804705E
:105280009DF805800EEB070303339DF806C04344E9
:105290009DF8072063449B18A3425CDCB1787278C8
:1052A000337801F0010102F00102090141EAC20173
:1052B00003F00703F2781943337902F0010241EA5F
:1052C000421103F0010341EA83112970B379707927
:1052D00003F00303F2791B0100F0030043EA8003AB
:1052E00043EA82136B70327ABEF1020FAA7018BFC4
:1052F0004FF0030E40D08FB1F31903F10C010EEB08
:1053000007037246D8B211F8013DAB540132D2B254
:105310008242F8D10EEB07035FFA83FEB8F1020F69
:1053200074461AD0BCF1000F11D006EB0C0303F148
:10533000160004EB0C032246D9B210F8013DAB5421
:105340000132D2B28A42F8D104EB0C03DCB220461F
:1053500002B0BDE8F0810020FAE7B38A0EF1010245
:1053600005F80E30B38AD2B21B0AAB540132D4B264
:10537000BCF1000FD9D1EAE772894FF0050EEA704F
:1053800073891B0A2B71002FB6D1C7E700B583B014
:105390000DF10301FFF724FF9DF804309DF8030091
:1053A0009DF80620C0189DF805300330C0189DF800
:1053B00007308018C01803B000BDC0464BB942B9D1
:1053C000002908BF002802D04FF0FF31084600F046
:1053D0003BB882B0EC462DE9005000F005F8DDF84E
:1053E00004E002B00CBC70472DE9704316461C4621
:1053F0008046894600F03CFA00FB04F406FB0145B8
:10540000069CA0FB0623EB18B8EB020869EB030926
:10541000C4E90089BDE870832DE9704316461C4637
:105420008046894600F012F800FB04F406FB0145B3
:10543000069CA0FB0623EB18B8EB020869EB0309F6
:10544000C4E90089BDE870837047C04600292DE992
:10545000F04F144687B01D46C0F2F5800026002BA1
:105460000196C0F2F980834626460F462846002D55
:105470005CD18C426AD9B4F5803FC0F0DE81B4F1D2
:10548000807FC0F0E6811822082046F22C4336FACD
:1054900002F1C0F220035A5C851A0AD0C5F120033C
:1054A00017FA05F22BFA03F3AE4043EA02070BFAB0
:1054B00005FB4FEA1649384649464FEA064800F0D0
:1054C000C9FB49464FEA1848824608FB00F53846B2
:1054D00000F0FCFB4FEA1B4343EA0144A54208D914
:1054E000A4190AF1FF3A04D2A54284BF0AF1FF3A97
:1054F000A419641B4946204600F0ACFB494608FB52
:1055000000F70546204600F0E1FB4FEA0B431B0C79
:1055100043EA0142974205D9013D931902D29F42C5
:1055200088BF013D45EA0A40002103E08D4267D96A
:1055300000200146019E02460B4616B1524263EB23
:1055400043031046194607B0BDE8F08F24B9012087
:10555000214600F07FFB0646B6F5803FC0F0838011
:10556000B6F1807FC0F078811822082046F22C43E3
:1055700036FA02F1C0F220035A5CB0EB020A40F0A6
:1055800085804FEA0648BC1B4FF0010A370C4FEAF2
:1055900018482046394600F05DFB394608FB00F507
:1055A0008146204600F092FB4FEA1B4343EA014448
:1055B000A54208D9A41909F1FF3904D2A54284BF34
:1055C00009F1FF39A419641B3946204600F042FB5B
:1055D000394608FB00F80546204600F077FB4FEA05
:1055E0000B431B0C43EA0142904505D9013D931939
:1055F00002D2984588BF013D45EA0940514699E7E6
:10560000B5F5803FC0F09080B5F1807FC0F01E817D
:105610001822082446F22C4330FA02F1C0F220038B
:105620005A5CB4EB020A40F092805E458CBF0023C6
:105630000123B84238BF43F00103002B3FF478AF99
:105640000120514676E7404261EB4101002B4FF0CB
:10565000FF360196BFF607AF019CE4430194544224
:1056600063EB4305FFE6B6F5807F46F22C4334BF7B
:105670000022082234BF20201820C0F2200336FA6E
:1056800002F15A5CB0EB020A3FF47BAF06FA0AF66D
:10569000CAF1200337FA03F407FA0AF2370C20465E
:1056A00039462BFA03F31343039300F0D3FA4FEA7E
:1056B000064839464FEA1848029008FB00F5204694
:1056C00000F004FB039A130C43EA0144A54209D9F4
:1056D000029B013BA419029304D2A54202D9A4194A
:1056E000591E0291641B3946204600F0B3FA394630
:1056F00008FB00F90546204600F0E8FA039A130477
:105700001B0C43EA0140814506D9013D801903D2B3
:10571000814501D9013D8019029B0BFA0AFBC9EBB7
:10572000000445EA034A34E7B5F5807F46F22C438E
:1057300034BF0022082234BF20241824C0F22003E2
:1057400030FA02F15A5CB4EB020A3FF46EAFCAF1D0
:10575000200200FA0AF136FA02F337FA02F443EAB9
:10576000010807FA0AF320462BFA02F24FEA18471B
:105770001A43394606FA0AF60592049600F06AFAC8
:105780004FEA08463946360C814606FB00F52046AE
:1057900000F09CFA059C230C43EA0144A54204D97D
:1057A00014EB080409F1FF395CD3641B3946204629
:1057B00000F050FA394606FB00F60546204600F098
:1057C00085FA059A13041B0C43EA0140864207D967
:1057D000013D10EB080003D2864201D9013D40444F
:1057E000841B45EA0946049D3204300C2B04120C3C
:1057F000290C1B0C01FB00F503FB02F703FB00F374
:1058000001FB023202EB1740834288BF05F5803569
:1058100005EB10439C420DD3BBB214BF0021012104
:105820000BFA0AF203EB00439A422CBF002201F06C
:105830000102A2B1701E00217CE6B4F5807F34BF66
:105840000022082234BF202018201EE61022144611
:10585000E0E61022104618E61022104686E6304692
:10586000114667E6A54284BF09F1FF3944449CE72D
:105870002DE9F04F0E461C4685B01146154683466D
:105880003746002C5ED1B2427ED9B2F5803FC0F0DF
:10589000C681B2F1807FC0F0D1811822082046F283
:1058A0002C4335FA02F1C0F220035A5CB0EB020E31
:1058B0000BD0CEF1200306FA0EF22BFA03F305FA11
:1058C0000EF543EA02070BFA0EFB4FEA154938467C
:1058D00049464FEA054800F0BDF949464FEA1848E5
:1058E000824608FB00F6384600F0F0F94FEA1B4309
:1058F00043EA0144A64208D964190AF1FF3A04D2E6
:10590000A64284BF0AF1FF3A6419A41B4946204607
:1059100000F0A0F9494608FB00F70646204600F0D3
:10592000D5F94FEA0B431B0C43EA0142974205D9D4
:10593000013E531902D29F4288BF013E46EA0A4403
:1059400000227CE0B44278D8B4F5803F7CD3B4F137
:10595000807FC0F06D811822082046F22C4334FA73
:1059600002F1C0F220035A5CB0EB020A7ED15D4521
:105970008CBF00230123B44238BF43F00103002B46
:105980005BD0012452465AE01AB9012000F062F9B6
:105990000546B5F5803FC0F0E180B5F1807FC0F0ED
:1059A0004A811822082046F22C4335FA02F1C0F24F
:1059B00020035A5CB0EB020A40F0E3804FEA05484E
:1059C000741B2F0C4FF0010A4FEA18482046394645
:1059D00000F040F9394608FB00F68146204600F009
:1059E00075F94FEA1B4343EA0144A64208D96419FA
:1059F00009F1FF3904D2A64284BF09F1FF396419C5
:105A0000A41B3946204600F025F9394608FB00F86A
:105A10000646204600F05AF94FEA0B431B0C43EAB6
:105A20000142904505D9013E531902D2984588BFDD
:105A3000013E46EA0944524601E00024224620463F
:105A4000114605B0BDE8F08FB4F5807F46F22C43D7
:105A500034BF0022082234BF20201820C0F22003C7
:105A600034FA02F15A5CB0EB020A80D0CAF120028B
:105A700004FA0AF135FA02F336FA02F443EA0108AD
:105A8000204606FA0AF32BFA02F24FEA18471A43A5
:105A90003946039205FA0AF5029500F0DBF84FEA61
:105AA00008463946360C814606FB00F5204600F0D4
:105AB0000DF9039A130C43EA0144A54205D914EBEE
:105AC000080409F1FF39C0F0BC80641B3946204648
:105AD00000F0C0F8394606FB00F60546204600F007
